{
  "abi": [
    {
      "inputs": [
        {
          "internalType": "uint256",
          "name": "minimum",
          "type": "uint256"
        }
      ],
      "name": "createCampaign",
      "outputs": [],
      "stateMutability": "nonpayable",
      "type": "function"
    },
    {
      "inputs": [
        {
          "internalType": "uint256",
          "name": "",
          "type": "uint256"
        }
      ],
      "name": "deployedCampaigns",
      "outputs": [
        {
          "internalType": "address",
          "name": "",
          "type": "address"
        }
      ],
      "stateMutability": "view",
      "type": "function"
    },
    {
      "inputs": [],
      "name": "getAllDeployedCampaigns",
      "outputs": [
        {
          "internalType": "address[]",
          "name": "",
          "type": "address[]"
        }
      ],
      "stateMutability": "view",
      "type": "function"
    }
  ],
  "devdoc": {
    "kind": "dev",
    "methods": {},
    "version": 1
  },
  "evm": {
    "assembly": "    /* \"Campaign.sol\":104:473  contract CampaignFactory {... */\n  mstore(0x40, 0x80)\n  callvalue\n  dup1\n  iszero\n  tag_1\n  jumpi\n  0x00\n  dup1\n  revert\ntag_1:\n  pop\n  dataSize(sub_0)\n  dup1\n  dataOffset(sub_0)\n  0x00\n  codecopy\n  0x00\n  return\nstop\n\nsub_0: assembly {\n        /* \"Campaign.sol\":104:473  contract CampaignFactory {... */\n      mstore(0x40, 0x80)\n      callvalue\n      dup1\n      iszero\n      tag_1\n      jumpi\n      0x00\n      dup1\n      revert\n    tag_1:\n      pop\n      jumpi(tag_2, lt(calldatasize, 0x04))\n      shr(0xe0, calldataload(0x00))\n      dup1\n      0x339d50a5\n      eq\n      tag_3\n      jumpi\n      dup1\n      0xa3303a75\n      eq\n      tag_4\n      jumpi\n      dup1\n      0xa950fbc5\n      eq\n      tag_5\n      jumpi\n    tag_2:\n      0x00\n      dup1\n      revert\n        /* \"Campaign.sol\":135:169  address[] public deployedCampaigns */\n    tag_3:\n      tag_6\n      0x04\n      dup1\n      calldatasize\n      sub\n      dup2\n      add\n      swap1\n      tag_7\n      swap2\n      swap1\n      tag_8\n      jump\t// in\n    tag_7:\n      tag_9\n      jump\t// in\n    tag_6:\n      mload(0x40)\n      tag_10\n      swap2\n      swap1\n      tag_11\n      jump\t// in\n    tag_10:\n      mload(0x40)\n      dup1\n      swap2\n      sub\n      swap1\n      return\n        /* \"Campaign.sol\":176:350  function createCampaign(uint256 minimum) public {... */\n    tag_4:\n      tag_12\n      0x04\n      dup1\n      calldatasize\n      sub\n      dup2\n      add\n      swap1\n      tag_13\n      swap2\n      swap1\n      tag_8\n      jump\t// in\n    tag_13:\n      tag_14\n      jump\t// in\n    tag_12:\n      stop\n        /* \"Campaign.sol\":356:471  function getAllDeployedCampaigns() public view returns (address[] memory) {... */\n    tag_5:\n      tag_15\n      tag_16\n      jump\t// in\n    tag_15:\n      mload(0x40)\n      tag_17\n      swap2\n      swap1\n      tag_18\n      jump\t// in\n    tag_17:\n      mload(0x40)\n      dup1\n      swap2\n      sub\n      swap1\n      return\n        /* \"Campaign.sol\":135:169  address[] public deployedCampaigns */\n    tag_9:\n      0x00\n      dup2\n      dup2\n      sload\n      dup2\n      lt\n      tag_19\n      jumpi\n      0x00\n      dup1\n      revert\n    tag_19:\n      swap1\n      0x00\n      mstore\n      keccak256(0x00, 0x20)\n      add\n      0x00\n      swap2\n      pop\n      sload\n      swap1\n      0x0100\n      exp\n      swap1\n      div\n      0xffffffffffffffffffffffffffffffffffffffff\n      and\n      dup2\n      jump\t// out\n        /* \"Campaign.sol\":176:350  function createCampaign(uint256 minimum) public {... */\n    tag_14:\n        /* \"Campaign.sol\":234:253  address newCampaign */\n      0x00\n        /* \"Campaign.sol\":277:284  minimum */\n      dup2\n        /* \"Campaign.sol\":286:296  msg.sender */\n      caller\n        /* \"Campaign.sol\":264:297  new Campaign(minimum, msg.sender) */\n      mload(0x40)\n      tag_22\n      swap1\n      tag_23\n      jump\t// in\n    tag_22:\n      tag_24\n      swap3\n      swap2\n      swap1\n      tag_25\n      jump\t// in\n    tag_24:\n      mload(0x40)\n      dup1\n      swap2\n      sub\n      swap1\n      0x00\n      create\n      dup1\n      iszero\n      dup1\n      iszero\n      tag_26\n      jumpi\n      returndatasize\n      0x00\n      dup1\n      returndatacopy\n      revert(0x00, returndatasize)\n    tag_26:\n      pop\n        /* \"Campaign.sol\":234:298  address newCampaign = address(new Campaign(minimum, msg.sender)) */\n      swap1\n      pop\n        /* \"Campaign.sol\":308:325  deployedCampaigns */\n      0x00\n        /* \"Campaign.sol\":331:342  newCampaign */\n      dup2\n        /* \"Campaign.sol\":308:343  deployedCampaigns.push(newCampaign) */\n      swap1\n      dup1\n      0x01\n      dup2\n      sload\n      add\n      dup1\n      dup3\n      sstore\n      dup1\n      swap2\n      pop\n      pop\n      0x01\n      swap1\n      sub\n      swap1\n      0x00\n      mstore\n      keccak256(0x00, 0x20)\n      add\n      0x00\n      swap1\n      swap2\n      swap1\n      swap2\n      swap1\n      swap2\n      0x0100\n      exp\n      dup2\n      sload\n      dup2\n      0xffffffffffffffffffffffffffffffffffffffff\n      mul\n      not\n      and\n      swap1\n      dup4\n      0xffffffffffffffffffffffffffffffffffffffff\n      and\n      mul\n      or\n      swap1\n      sstore\n      pop\n        /* \"Campaign.sol\":224:350  {... */\n      pop\n        /* \"Campaign.sol\":176:350  function createCampaign(uint256 minimum) public {... */\n      pop\n      jump\t// out\n        /* \"Campaign.sol\":356:471  function getAllDeployedCampaigns() public view returns (address[] memory) {... */\n    tag_16:\n        /* \"Campaign.sol\":412:428  address[] memory */\n      0x60\n        /* \"Campaign.sol\":447:464  deployedCampaigns */\n      0x00\n        /* \"Campaign.sol\":440:464  return deployedCampaigns */\n      dup1\n      sload\n      dup1\n      0x20\n      mul\n      0x20\n      add\n      mload(0x40)\n      swap1\n      dup2\n      add\n      0x40\n      mstore\n      dup1\n      swap3\n      swap2\n      swap1\n      dup2\n      dup2\n      mstore\n      0x20\n      add\n      dup3\n      dup1\n      sload\n      dup1\n      iszero\n      tag_29\n      jumpi\n      0x20\n      mul\n      dup3\n      add\n      swap2\n      swap1\n      0x00\n      mstore\n      keccak256(0x00, 0x20)\n      swap1\n    tag_30:\n      dup2\n      0x00\n      swap1\n      sload\n      swap1\n      0x0100\n      exp\n      swap1\n      div\n      0xffffffffffffffffffffffffffffffffffffffff\n      and\n      0xffffffffffffffffffffffffffffffffffffffff\n      and\n      dup2\n      mstore\n      0x20\n      add\n      swap1\n      0x01\n      add\n      swap1\n      dup1\n      dup4\n      gt\n      tag_30\n      jumpi\n    tag_29:\n      pop\n      pop\n      pop\n      pop\n      pop\n      swap1\n      pop\n        /* \"Campaign.sol\":356:471  function getAllDeployedCampaigns() public view returns (address[] memory) {... */\n      swap1\n      jump\t// out\n    tag_23:\n      dataSize(sub_0)\n      dup1\n      dataOffset(sub_0)\n      dup4\n      codecopy\n      add\n      swap1\n      jump\t// out\n        /* \"#utility.yul\":88:205   */\n    tag_32:\n        /* \"#utility.yul\":197:198   */\n      0x00\n        /* \"#utility.yul\":194:195   */\n      dup1\n        /* \"#utility.yul\":187:199   */\n      revert\n        /* \"#utility.yul\":334:411   */\n    tag_34:\n        /* \"#utility.yul\":371:378   */\n      0x00\n        /* \"#utility.yul\":400:405   */\n      dup2\n        /* \"#utility.yul\":389:405   */\n      swap1\n      pop\n        /* \"#utility.yul\":334:411   */\n      swap2\n      swap1\n      pop\n      jump\t// out\n        /* \"#utility.yul\":417:539   */\n    tag_35:\n        /* \"#utility.yul\":490:514   */\n      tag_54\n        /* \"#utility.yul\":508:513   */\n      dup2\n        /* \"#utility.yul\":490:514   */\n      tag_34\n      jump\t// in\n    tag_54:\n        /* \"#utility.yul\":483:488   */\n      dup2\n        /* \"#utility.yul\":480:515   */\n      eq\n        /* \"#utility.yul\":470:533   */\n      tag_55\n      jumpi\n        /* \"#utility.yul\":529:530   */\n      0x00\n        /* \"#utility.yul\":526:527   */\n      dup1\n        /* \"#utility.yul\":519:531   */\n      revert\n        /* \"#utility.yul\":470:533   */\n    tag_55:\n        /* \"#utility.yul\":417:539   */\n      pop\n      jump\t// out\n        /* \"#utility.yul\":545:684   */\n    tag_36:\n        /* \"#utility.yul\":591:596   */\n      0x00\n        /* \"#utility.yul\":629:635   */\n      dup2\n        /* \"#utility.yul\":616:636   */\n      calldataload\n        /* \"#utility.yul\":607:636   */\n      swap1\n      pop\n        /* \"#utility.yul\":645:678   */\n      tag_57\n        /* \"#utility.yul\":672:677   */\n      dup2\n        /* \"#utility.yul\":645:678   */\n      tag_35\n      jump\t// in\n    tag_57:\n        /* \"#utility.yul\":545:684   */\n      swap3\n      swap2\n      pop\n      pop\n      jump\t// out\n        /* \"#utility.yul\":690:1019   */\n    tag_8:\n        /* \"#utility.yul\":749:755   */\n      0x00\n        /* \"#utility.yul\":798:800   */\n      0x20\n        /* \"#utility.yul\":786:795   */\n      dup3\n        /* \"#utility.yul\":777:784   */\n      dup5\n        /* \"#utility.yul\":773:796   */\n      sub\n        /* \"#utility.yul\":769:801   */\n      slt\n        /* \"#utility.yul\":766:885   */\n      iszero\n      tag_59\n      jumpi\n        /* \"#utility.yul\":804:883   */\n      tag_60\n      tag_32\n      jump\t// in\n    tag_60:\n        /* \"#utility.yul\":766:885   */\n    tag_59:\n        /* \"#utility.yul\":924:925   */\n      0x00\n        /* \"#utility.yul\":949:1002   */\n      tag_61\n        /* \"#utility.yul\":994:1001   */\n      dup5\n        /* \"#utility.yul\":985:991   */\n      dup3\n        /* \"#utility.yul\":974:983   */\n      dup6\n        /* \"#utility.yul\":970:992   */\n      add\n        /* \"#utility.yul\":949:1002   */\n      tag_36\n      jump\t// in\n    tag_61:\n        /* \"#utility.yul\":939:1002   */\n      swap2\n      pop\n        /* \"#utility.yul\":895:1012   */\n      pop\n        /* \"#utility.yul\":690:1019   */\n      swap3\n      swap2\n      pop\n      pop\n      jump\t// out\n        /* \"#utility.yul\":1025:1151   */\n    tag_37:\n        /* \"#utility.yul\":1062:1069   */\n      0x00\n        /* \"#utility.yul\":1102:1144   */\n      0xffffffffffffffffffffffffffffffffffffffff\n        /* \"#utility.yul\":1095:1100   */\n      dup3\n        /* \"#utility.yul\":1091:1145   */\n      and\n        /* \"#utility.yul\":1080:1145   */\n      swap1\n      pop\n        /* \"#utility.yul\":1025:1151   */\n      swap2\n      swap1\n      pop\n      jump\t// out\n        /* \"#utility.yul\":1157:1253   */\n    tag_38:\n        /* \"#utility.yul\":1194:1201   */\n      0x00\n        /* \"#utility.yul\":1223:1247   */\n      tag_64\n        /* \"#utility.yul\":1241:1246   */\n      dup3\n        /* \"#utility.yul\":1223:1247   */\n      tag_37\n      jump\t// in\n    tag_64:\n        /* \"#utility.yul\":1212:1247   */\n      swap1\n      pop\n        /* \"#utility.yul\":1157:1253   */\n      swap2\n      swap1\n      pop\n      jump\t// out\n        /* \"#utility.yul\":1259:1377   */\n    tag_39:\n        /* \"#utility.yul\":1346:1370   */\n      tag_66\n        /* \"#utility.yul\":1364:1369   */\n      dup2\n        /* \"#utility.yul\":1346:1370   */\n      tag_38\n      jump\t// in\n    tag_66:\n        /* \"#utility.yul\":1341:1344   */\n      dup3\n        /* \"#utility.yul\":1334:1371   */\n      mstore\n        /* \"#utility.yul\":1259:1377   */\n      pop\n      pop\n      jump\t// out\n        /* \"#utility.yul\":1383:1605   */\n    tag_11:\n        /* \"#utility.yul\":1476:1480   */\n      0x00\n        /* \"#utility.yul\":1514:1516   */\n      0x20\n        /* \"#utility.yul\":1503:1512   */\n      dup3\n        /* \"#utility.yul\":1499:1517   */\n      add\n        /* \"#utility.yul\":1491:1517   */\n      swap1\n      pop\n        /* \"#utility.yul\":1527:1598   */\n      tag_68\n        /* \"#utility.yul\":1595:1596   */\n      0x00\n        /* \"#utility.yul\":1584:1593   */\n      dup4\n        /* \"#utility.yul\":1580:1597   */\n      add\n        /* \"#utility.yul\":1571:1577   */\n      dup5\n        /* \"#utility.yul\":1527:1598   */\n      tag_39\n      jump\t// in\n    tag_68:\n        /* \"#utility.yul\":1383:1605   */\n      swap3\n      swap2\n      pop\n      pop\n      jump\t// out\n        /* \"#utility.yul\":1611:1725   */\n    tag_40:\n        /* \"#utility.yul\":1678:1684   */\n      0x00\n        /* \"#utility.yul\":1712:1717   */\n      dup2\n        /* \"#utility.yul\":1706:1718   */\n      mload\n        /* \"#utility.yul\":1696:1718   */\n      swap1\n      pop\n        /* \"#utility.yul\":1611:1725   */\n      swap2\n      swap1\n      pop\n      jump\t// out\n        /* \"#utility.yul\":1731:1915   */\n    tag_41:\n        /* \"#utility.yul\":1830:1841   */\n      0x00\n        /* \"#utility.yul\":1864:1870   */\n      dup3\n        /* \"#utility.yul\":1859:1862   */\n      dup3\n        /* \"#utility.yul\":1852:1871   */\n      mstore\n        /* \"#utility.yul\":1904:1908   */\n      0x20\n        /* \"#utility.yul\":1899:1902   */\n      dup3\n        /* \"#utility.yul\":1895:1909   */\n      add\n        /* \"#utility.yul\":1880:1909   */\n      swap1\n      pop\n        /* \"#utility.yul\":1731:1915   */\n      swap3\n      swap2\n      pop\n      pop\n      jump\t// out\n        /* \"#utility.yul\":1921:2053   */\n    tag_42:\n        /* \"#utility.yul\":1988:1992   */\n      0x00\n        /* \"#utility.yul\":2011:2014   */\n      dup2\n        /* \"#utility.yul\":2003:2014   */\n      swap1\n      pop\n        /* \"#utility.yul\":2041:2045   */\n      0x20\n        /* \"#utility.yul\":2036:2039   */\n      dup3\n        /* \"#utility.yul\":2032:2046   */\n      add\n        /* \"#utility.yul\":2024:2046   */\n      swap1\n      pop\n        /* \"#utility.yul\":1921:2053   */\n      swap2\n      swap1\n      pop\n      jump\t// out\n        /* \"#utility.yul\":2059:2167   */\n    tag_43:\n        /* \"#utility.yul\":2136:2160   */\n      tag_73\n        /* \"#utility.yul\":2154:2159   */\n      dup2\n        /* \"#utility.yul\":2136:2160   */\n      tag_38\n      jump\t// in\n    tag_73:\n        /* \"#utility.yul\":2131:2134   */\n      dup3\n        /* \"#utility.yul\":2124:2161   */\n      mstore\n        /* \"#utility.yul\":2059:2167   */\n      pop\n      pop\n      jump\t// out\n        /* \"#utility.yul\":2173:2352   */\n    tag_44:\n        /* \"#utility.yul\":2242:2252   */\n      0x00\n        /* \"#utility.yul\":2263:2309   */\n      tag_75\n        /* \"#utility.yul\":2305:2308   */\n      dup4\n        /* \"#utility.yul\":2297:2303   */\n      dup4\n        /* \"#utility.yul\":2263:2309   */\n      tag_43\n      jump\t// in\n    tag_75:\n        /* \"#utility.yul\":2341:2345   */\n      0x20\n        /* \"#utility.yul\":2336:2339   */\n      dup4\n        /* \"#utility.yul\":2332:2346   */\n      add\n        /* \"#utility.yul\":2318:2346   */\n      swap1\n      pop\n        /* \"#utility.yul\":2173:2352   */\n      swap3\n      swap2\n      pop\n      pop\n      jump\t// out\n        /* \"#utility.yul\":2358:2471   */\n    tag_45:\n        /* \"#utility.yul\":2428:2432   */\n      0x00\n        /* \"#utility.yul\":2460:2464   */\n      0x20\n        /* \"#utility.yul\":2455:2458   */\n      dup3\n        /* \"#utility.yul\":2451:2465   */\n      add\n        /* \"#utility.yul\":2443:2465   */\n      swap1\n      pop\n        /* \"#utility.yul\":2358:2471   */\n      swap2\n      swap1\n      pop\n      jump\t// out\n        /* \"#utility.yul\":2507:3239   */\n    tag_46:\n        /* \"#utility.yul\":2626:2629   */\n      0x00\n        /* \"#utility.yul\":2655:2709   */\n      tag_78\n        /* \"#utility.yul\":2703:2708   */\n      dup3\n        /* \"#utility.yul\":2655:2709   */\n      tag_40\n      jump\t// in\n    tag_78:\n        /* \"#utility.yul\":2725:2811   */\n      tag_79\n        /* \"#utility.yul\":2804:2810   */\n      dup2\n        /* \"#utility.yul\":2799:2802   */\n      dup6\n        /* \"#utility.yul\":2725:2811   */\n      tag_41\n      jump\t// in\n    tag_79:\n        /* \"#utility.yul\":2718:2811   */\n      swap4\n      pop\n        /* \"#utility.yul\":2835:2891   */\n      tag_80\n        /* \"#utility.yul\":2885:2890   */\n      dup4\n        /* \"#utility.yul\":2835:2891   */\n      tag_42\n      jump\t// in\n    tag_80:\n        /* \"#utility.yul\":2914:2921   */\n      dup1\n        /* \"#utility.yul\":2945:2946   */\n      0x00\n        /* \"#utility.yul\":2930:3214   */\n    tag_81:\n        /* \"#utility.yul\":2955:2961   */\n      dup4\n        /* \"#utility.yul\":2952:2953   */\n      dup2\n        /* \"#utility.yul\":2949:2962   */\n      lt\n        /* \"#utility.yul\":2930:3214   */\n      iszero\n      tag_83\n      jumpi\n        /* \"#utility.yul\":3031:3037   */\n      dup2\n        /* \"#utility.yul\":3025:3038   */\n      mload\n        /* \"#utility.yul\":3058:3121   */\n      tag_84\n        /* \"#utility.yul\":3117:3120   */\n      dup9\n        /* \"#utility.yul\":3102:3115   */\n      dup3\n        /* \"#utility.yul\":3058:3121   */\n      tag_44\n      jump\t// in\n    tag_84:\n        /* \"#utility.yul\":3051:3121   */\n      swap8\n      pop\n        /* \"#utility.yul\":3144:3204   */\n      tag_85\n        /* \"#utility.yul\":3197:3203   */\n      dup4\n        /* \"#utility.yul\":3144:3204   */\n      tag_45\n      jump\t// in\n    tag_85:\n        /* \"#utility.yul\":3134:3204   */\n      swap3\n      pop\n        /* \"#utility.yul\":2990:3214   */\n      pop\n        /* \"#utility.yul\":2977:2978   */\n      0x01\n        /* \"#utility.yul\":2974:2975   */\n      dup2\n        /* \"#utility.yul\":2970:2979   */\n      add\n        /* \"#utility.yul\":2965:2979   */\n      swap1\n      pop\n        /* \"#utility.yul\":2930:3214   */\n      jump(tag_81)\n    tag_83:\n        /* \"#utility.yul\":2934:2948   */\n      pop\n        /* \"#utility.yul\":3230:3233   */\n      dup6\n        /* \"#utility.yul\":3223:3233   */\n      swap4\n      pop\n        /* \"#utility.yul\":2631:3239   */\n      pop\n      pop\n      pop\n        /* \"#utility.yul\":2507:3239   */\n      swap3\n      swap2\n      pop\n      pop\n      jump\t// out\n        /* \"#utility.yul\":3245:3618   */\n    tag_18:\n        /* \"#utility.yul\":3388:3392   */\n      0x00\n        /* \"#utility.yul\":3426:3428   */\n      0x20\n        /* \"#utility.yul\":3415:3424   */\n      dup3\n        /* \"#utility.yul\":3411:3429   */\n      add\n        /* \"#utility.yul\":3403:3429   */\n      swap1\n      pop\n        /* \"#utility.yul\":3475:3484   */\n      dup2\n        /* \"#utility.yul\":3469:3473   */\n      dup2\n        /* \"#utility.yul\":3465:3485   */\n      sub\n        /* \"#utility.yul\":3461:3462   */\n      0x00\n        /* \"#utility.yul\":3450:3459   */\n      dup4\n        /* \"#utility.yul\":3446:3463   */\n      add\n        /* \"#utility.yul\":3439:3486   */\n      mstore\n        /* \"#utility.yul\":3503:3611   */\n      tag_87\n        /* \"#utility.yul\":3606:3610   */\n      dup2\n        /* \"#utility.yul\":3597:3603   */\n      dup5\n        /* \"#utility.yul\":3503:3611   */\n      tag_46\n      jump\t// in\n    tag_87:\n        /* \"#utility.yul\":3495:3611   */\n      swap1\n      pop\n        /* \"#utility.yul\":3245:3618   */\n      swap3\n      swap2\n      pop\n      pop\n      jump\t// out\n        /* \"#utility.yul\":3624:3742   */\n    tag_47:\n        /* \"#utility.yul\":3711:3735   */\n      tag_89\n        /* \"#utility.yul\":3729:3734   */\n      dup2\n        /* \"#utility.yul\":3711:3735   */\n      tag_34\n      jump\t// in\n    tag_89:\n        /* \"#utility.yul\":3706:3709   */\n      dup3\n        /* \"#utility.yul\":3699:3736   */\n      mstore\n        /* \"#utility.yul\":3624:3742   */\n      pop\n      pop\n      jump\t// out\n        /* \"#utility.yul\":3748:4080   */\n    tag_25:\n        /* \"#utility.yul\":3869:3873   */\n      0x00\n        /* \"#utility.yul\":3907:3909   */\n      0x40\n        /* \"#utility.yul\":3896:3905   */\n      dup3\n        /* \"#utility.yul\":3892:3910   */\n      add\n        /* \"#utility.yul\":3884:3910   */\n      swap1\n      pop\n        /* \"#utility.yul\":3920:3991   */\n      tag_91\n        /* \"#utility.yul\":3988:3989   */\n      0x00\n        /* \"#utility.yul\":3977:3986   */\n      dup4\n        /* \"#utility.yul\":3973:3990   */\n      add\n        /* \"#utility.yul\":3964:3970   */\n      dup6\n        /* \"#utility.yul\":3920:3991   */\n      tag_47\n      jump\t// in\n    tag_91:\n        /* \"#utility.yul\":4001:4073   */\n      tag_92\n        /* \"#utility.yul\":4069:4071   */\n      0x20\n        /* \"#utility.yul\":4058:4067   */\n      dup4\n        /* \"#utility.yul\":4054:4072   */\n      add\n        /* \"#utility.yul\":4045:4051   */\n      dup5\n        /* \"#utility.yul\":4001:4073   */\n      tag_39\n      jump\t// in\n    tag_92:\n        /* \"#utility.yul\":3748:4080   */\n      swap4\n      swap3\n      pop\n      pop\n      pop\n      jump\t// out\n    stop\n\n    sub_0: assembly {\n            /* \"Campaign.sol\":475:3176  contract Campaign {... */\n          mstore(0x40, 0x80)\n            /* \"Campaign.sol\":1060:1061  0 */\n          0x00\n            /* \"Campaign.sol\":1027:1061  uint256 public numContributors = 0 */\n          0x04\n          sstore\n            /* \"Campaign.sol\":1154:1269  constructor(uint256 minimum, address creator) {... */\n          callvalue\n          dup1\n          iszero\n          tag_1\n          jumpi\n          0x00\n          dup1\n          revert\n        tag_1:\n          pop\n          mload(0x40)\n          sub(codesize, bytecodeSize)\n          dup1\n          bytecodeSize\n          dup4\n          codecopy\n          dup2\n          dup2\n          add\n          0x40\n          mstore\n          dup2\n          add\n          swap1\n          tag_2\n          swap2\n          swap1\n          tag_3\n          jump\t// in\n        tag_2:\n            /* \"Campaign.sol\":1220:1227  creator */\n          dup1\n            /* \"Campaign.sol\":1210:1217  manager */\n          0x01\n          0x00\n            /* \"Campaign.sol\":1210:1227  manager = creator */\n          0x0100\n          exp\n          dup2\n          sload\n          dup2\n          0xffffffffffffffffffffffffffffffffffffffff\n          mul\n          not\n          and\n          swap1\n          dup4\n          0xffffffffffffffffffffffffffffffffffffffff\n          and\n          mul\n          or\n          swap1\n          sstore\n          pop\n            /* \"Campaign.sol\":1255:1262  minimum */\n          dup2\n            /* \"Campaign.sol\":1237:1252  minContribution */\n          0x02\n            /* \"Campaign.sol\":1237:1262  minContribution = minimum */\n          dup2\n          swap1\n          sstore\n          pop\n            /* \"Campaign.sol\":1154:1269  constructor(uint256 minimum, address creator) {... */\n          pop\n          pop\n            /* \"Campaign.sol\":475:3176  contract Campaign {... */\n          jump(tag_6)\n            /* \"#utility.yul\":88:205   */\n        tag_8:\n            /* \"#utility.yul\":197:198   */\n          0x00\n            /* \"#utility.yul\":194:195   */\n          dup1\n            /* \"#utility.yul\":187:199   */\n          revert\n            /* \"#utility.yul\":334:411   */\n        tag_10:\n            /* \"#utility.yul\":371:378   */\n          0x00\n            /* \"#utility.yul\":400:405   */\n          dup2\n            /* \"#utility.yul\":389:405   */\n          swap1\n          pop\n            /* \"#utility.yul\":334:411   */\n          swap2\n          swap1\n          pop\n          jump\t// out\n            /* \"#utility.yul\":417:539   */\n        tag_11:\n            /* \"#utility.yul\":490:514   */\n          tag_23\n            /* \"#utility.yul\":508:513   */\n          dup2\n            /* \"#utility.yul\":490:514   */\n          tag_10\n          jump\t// in\n        tag_23:\n            /* \"#utility.yul\":483:488   */\n          dup2\n            /* \"#utility.yul\":480:515   */\n          eq\n            /* \"#utility.yul\":470:533   */\n          tag_24\n          jumpi\n            /* \"#utility.yul\":529:530   */\n          0x00\n            /* \"#utility.yul\":526:527   */\n          dup1\n            /* \"#utility.yul\":519:531   */\n          revert\n            /* \"#utility.yul\":470:533   */\n        tag_24:\n            /* \"#utility.yul\":417:539   */\n          pop\n          jump\t// out\n            /* \"#utility.yul\":545:688   */\n        tag_12:\n            /* \"#utility.yul\":602:607   */\n          0x00\n            /* \"#utility.yul\":633:639   */\n          dup2\n            /* \"#utility.yul\":627:640   */\n          mload\n            /* \"#utility.yul\":618:640   */\n          swap1\n          pop\n            /* \"#utility.yul\":649:682   */\n          tag_26\n            /* \"#utility.yul\":676:681   */\n          dup2\n            /* \"#utility.yul\":649:682   */\n          tag_11\n          jump\t// in\n        tag_26:\n            /* \"#utility.yul\":545:688   */\n          swap3\n          swap2\n          pop\n          pop\n          jump\t// out\n            /* \"#utility.yul\":694:820   */\n        tag_13:\n            /* \"#utility.yul\":731:738   */\n          0x00\n            /* \"#utility.yul\":771:813   */\n          0xffffffffffffffffffffffffffffffffffffffff\n            /* \"#utility.yul\":764:769   */\n          dup3\n            /* \"#utility.yul\":760:814   */\n          and\n            /* \"#utility.yul\":749:814   */\n          swap1\n          pop\n            /* \"#utility.yul\":694:820   */\n          swap2\n          swap1\n          pop\n          jump\t// out\n            /* \"#utility.yul\":826:922   */\n        tag_14:\n            /* \"#utility.yul\":863:870   */\n          0x00\n            /* \"#utility.yul\":892:916   */\n          tag_29\n            /* \"#utility.yul\":910:915   */\n          dup3\n            /* \"#utility.yul\":892:916   */\n          tag_13\n          jump\t// in\n        tag_29:\n            /* \"#utility.yul\":881:916   */\n          swap1\n          pop\n            /* \"#utility.yul\":826:922   */\n          swap2\n          swap1\n          pop\n          jump\t// out\n            /* \"#utility.yul\":928:1050   */\n        tag_15:\n            /* \"#utility.yul\":1001:1025   */\n          tag_31\n            /* \"#utility.yul\":1019:1024   */\n          dup2\n            /* \"#utility.yul\":1001:1025   */\n          tag_14\n          jump\t// in\n        tag_31:\n            /* \"#utility.yul\":994:999   */\n          dup2\n            /* \"#utility.yul\":991:1026   */\n          eq\n            /* \"#utility.yul\":981:1044   */\n          tag_32\n          jumpi\n            /* \"#utility.yul\":1040:1041   */\n          0x00\n            /* \"#utility.yul\":1037:1038   */\n          dup1\n            /* \"#utility.yul\":1030:1042   */\n          revert\n            /* \"#utility.yul\":981:1044   */\n        tag_32:\n            /* \"#utility.yul\":928:1050   */\n          pop\n          jump\t// out\n            /* \"#utility.yul\":1056:1199   */\n        tag_16:\n            /* \"#utility.yul\":1113:1118   */\n          0x00\n            /* \"#utility.yul\":1144:1150   */\n          dup2\n            /* \"#utility.yul\":1138:1151   */\n          mload\n            /* \"#utility.yul\":1129:1151   */\n          swap1\n          pop\n            /* \"#utility.yul\":1160:1193   */\n          tag_34\n            /* \"#utility.yul\":1187:1192   */\n          dup2\n            /* \"#utility.yul\":1160:1193   */\n          tag_15\n          jump\t// in\n        tag_34:\n            /* \"#utility.yul\":1056:1199   */\n          swap3\n          swap2\n          pop\n          pop\n          jump\t// out\n            /* \"#utility.yul\":1205:1712   */\n        tag_3:\n            /* \"#utility.yul\":1284:1290   */\n          0x00\n            /* \"#utility.yul\":1292:1298   */\n          dup1\n            /* \"#utility.yul\":1341:1343   */\n          0x40\n            /* \"#utility.yul\":1329:1338   */\n          dup4\n            /* \"#utility.yul\":1320:1327   */\n          dup6\n            /* \"#utility.yul\":1316:1339   */\n          sub\n            /* \"#utility.yul\":1312:1344   */\n          slt\n            /* \"#utility.yul\":1309:1428   */\n          iszero\n          tag_36\n          jumpi\n            /* \"#utility.yul\":1347:1426   */\n          tag_37\n          tag_8\n          jump\t// in\n        tag_37:\n            /* \"#utility.yul\":1309:1428   */\n        tag_36:\n            /* \"#utility.yul\":1467:1468   */\n          0x00\n            /* \"#utility.yul\":1492:1556   */\n          tag_38\n            /* \"#utility.yul\":1548:1555   */\n          dup6\n            /* \"#utility.yul\":1539:1545   */\n          dup3\n            /* \"#utility.yul\":1528:1537   */\n          dup7\n            /* \"#utility.yul\":1524:1546   */\n          add\n            /* \"#utility.yul\":1492:1556   */\n          tag_12\n          jump\t// in\n        tag_38:\n            /* \"#utility.yul\":1482:1556   */\n          swap3\n          pop\n            /* \"#utility.yul\":1438:1566   */\n          pop\n            /* \"#utility.yul\":1605:1607   */\n          0x20\n            /* \"#utility.yul\":1631:1695   */\n          tag_39\n            /* \"#utility.yul\":1687:1694   */\n          dup6\n            /* \"#utility.yul\":1678:1684   */\n          dup3\n            /* \"#utility.yul\":1667:1676   */\n          dup7\n            /* \"#utility.yul\":1663:1685   */\n          add\n            /* \"#utility.yul\":1631:1695   */\n          tag_16\n          jump\t// in\n        tag_39:\n            /* \"#utility.yul\":1621:1695   */\n          swap2\n          pop\n            /* \"#utility.yul\":1576:1705   */\n          pop\n            /* \"#utility.yul\":1205:1712   */\n          swap3\n          pop\n          swap3\n          swap1\n          pop\n          jump\t// out\n            /* \"Campaign.sol\":475:3176  contract Campaign {... */\n        tag_6:\n          dataSize(sub_0)\n          dup1\n          dataOffset(sub_0)\n          0x00\n          codecopy\n          0x00\n          return\n        stop\n\n        sub_0: assembly {\n                /* \"Campaign.sol\":475:3176  contract Campaign {... */\n              mstore(0x40, 0x80)\n              jumpi(tag_1, lt(calldatasize, 0x04))\n              shr(0xe0, calldataload(0x00))\n              dup1\n              0x81d12c58\n              gt\n              tag_13\n              jumpi\n              dup1\n              0x81d12c58\n              eq\n              tag_7\n              jumpi\n              dup1\n              0x8a9cfd55\n              eq\n              tag_8\n              jumpi\n              dup1\n              0x8f03850b\n              eq\n              tag_9\n              jumpi\n              dup1\n              0xaaffadf3\n              eq\n              tag_10\n              jumpi\n              dup1\n              0xd7bb99ba\n              eq\n              tag_11\n              jumpi\n              dup1\n              0xd7d1bbdb\n              eq\n              tag_12\n              jumpi\n              jump(tag_1)\n            tag_13:\n              dup1\n              0x03441006\n              eq\n              tag_2\n              jumpi\n              dup1\n              0x0c611f24\n              eq\n              tag_3\n              jumpi\n              dup1\n              0x1f6d4942\n              eq\n              tag_4\n              jumpi\n              dup1\n              0x3410452a\n              eq\n              tag_5\n              jumpi\n              dup1\n              0x481c6a75\n              eq\n              tag_6\n              jumpi\n            tag_1:\n              0x00\n              dup1\n              revert\n                /* \"Campaign.sol\":2301:2599  function finalizeRequest(uint256 index) public restricted {... */\n            tag_2:\n              callvalue\n              dup1\n              iszero\n              tag_14\n              jumpi\n              0x00\n              dup1\n              revert\n            tag_14:\n              pop\n              tag_15\n              0x04\n              dup1\n              calldatasize\n              sub\n              dup2\n              add\n              swap1\n              tag_16\n              swap2\n              swap1\n              tag_17\n              jump\t// in\n            tag_16:\n              tag_18\n              jump\t// in\n            tag_15:\n              stop\n                /* \"Campaign.sol\":2643:3071  function getCampaignDetails()... */\n            tag_3:\n              callvalue\n              dup1\n              iszero\n              tag_19\n              jumpi\n              0x00\n              dup1\n              revert\n            tag_19:\n              pop\n              tag_20\n              tag_21\n              jump\t// in\n            tag_20:\n              mload(0x40)\n              tag_22\n              swap6\n              swap5\n              swap4\n              swap3\n              swap2\n              swap1\n              tag_23\n              jump\t// in\n            tag_22:\n              mload(0x40)\n              dup1\n              swap2\n              sub\n              swap1\n              return\n                /* \"Campaign.sol\":977:1021  mapping(address => bool) public contributors */\n            tag_4:\n              callvalue\n              dup1\n              iszero\n              tag_24\n              jumpi\n              0x00\n              dup1\n              revert\n            tag_24:\n              pop\n              tag_25\n              0x04\n              dup1\n              calldatasize\n              sub\n              dup2\n              add\n              swap1\n              tag_26\n              swap2\n              swap1\n              tag_27\n              jump\t// in\n            tag_26:\n              tag_28\n              jump\t// in\n            tag_25:\n              mload(0x40)\n              tag_29\n              swap2\n              swap1\n              tag_30\n              jump\t// in\n            tag_29:\n              mload(0x40)\n              dup1\n              swap2\n              sub\n              swap1\n              return\n                /* \"Campaign.sol\":3077:3174  function getRequestsCount() public view returns (uint256) {... */\n            tag_5:\n              callvalue\n              dup1\n              iszero\n              tag_31\n              jumpi\n              0x00\n              dup1\n              revert\n            tag_31:\n              pop\n              tag_32\n              tag_33\n              jump\t// in\n            tag_32:\n              mload(0x40)\n              tag_34\n              swap2\n              swap1\n              tag_35\n              jump\t// in\n            tag_34:\n              mload(0x40)\n              dup1\n              swap2\n              sub\n              swap1\n              return\n                /* \"Campaign.sol\":904:926  address public manager */\n            tag_6:\n              callvalue\n              dup1\n              iszero\n              tag_36\n              jumpi\n              0x00\n              dup1\n              revert\n            tag_36:\n              pop\n              tag_37\n              tag_38\n              jump\t// in\n            tag_37:\n              mload(0x40)\n              tag_39\n              swap2\n              swap1\n              tag_40\n              jump\t// in\n            tag_39:\n              mload(0x40)\n              dup1\n              swap2\n              sub\n              swap1\n              return\n                /* \"Campaign.sol\":873:898  Request[] public requests */\n            tag_7:\n              callvalue\n              dup1\n              iszero\n              tag_41\n              jumpi\n              0x00\n              dup1\n              revert\n            tag_41:\n              pop\n              tag_42\n              0x04\n              dup1\n              calldatasize\n              sub\n              dup2\n              add\n              swap1\n              tag_43\n              swap2\n              swap1\n              tag_17\n              jump\t// in\n            tag_43:\n              tag_44\n              jump\t// in\n            tag_42:\n              mload(0x40)\n              tag_45\n              swap6\n              swap5\n              swap4\n              swap3\n              swap2\n              swap1\n              tag_46\n              jump\t// in\n            tag_45:\n              mload(0x40)\n              dup1\n              swap2\n              sub\n              swap1\n              return\n                /* \"Campaign.sol\":1439:1967  function createRequest(... */\n            tag_8:\n              tag_47\n              0x04\n              dup1\n              calldatasize\n              sub\n              dup2\n              add\n              swap1\n              tag_48\n              swap2\n              swap1\n              tag_49\n              jump\t// in\n            tag_48:\n              tag_50\n              jump\t// in\n            tag_47:\n              stop\n                /* \"Campaign.sol\":1027:1061  uint256 public numContributors = 0 */\n            tag_9:\n              callvalue\n              dup1\n              iszero\n              tag_51\n              jumpi\n              0x00\n              dup1\n              revert\n            tag_51:\n              pop\n              tag_52\n              tag_53\n              jump\t// in\n            tag_52:\n              mload(0x40)\n              tag_54\n              swap2\n              swap1\n              tag_35\n              jump\t// in\n            tag_54:\n              mload(0x40)\n              dup1\n              swap2\n              sub\n              swap1\n              return\n                /* \"Campaign.sol\":932:962  uint256 public minContribution */\n            tag_10:\n              callvalue\n              dup1\n              iszero\n              tag_55\n              jumpi\n              0x00\n              dup1\n              revert\n            tag_55:\n              pop\n              tag_56\n              tag_57\n              jump\t// in\n            tag_56:\n              mload(0x40)\n              tag_58\n              swap2\n              swap1\n              tag_35\n              jump\t// in\n            tag_58:\n              mload(0x40)\n              dup1\n              swap2\n              sub\n              swap1\n              return\n                /* \"Campaign.sol\":1275:1433  function contribute() public payable {... */\n            tag_11:\n              tag_59\n              tag_60\n              jump\t// in\n            tag_59:\n              stop\n                /* \"Campaign.sol\":1973:2295  function approveRequest(uint256 index) public {... */\n            tag_12:\n              callvalue\n              dup1\n              iszero\n              tag_61\n              jumpi\n              0x00\n              dup1\n              revert\n            tag_61:\n              pop\n              tag_62\n              0x04\n              dup1\n              calldatasize\n              sub\n              dup2\n              add\n              swap1\n              tag_63\n              swap2\n              swap1\n              tag_17\n              jump\t// in\n            tag_63:\n              tag_64\n              jump\t// in\n            tag_62:\n              stop\n                /* \"Campaign.sol\":2301:2599  function finalizeRequest(uint256 index) public restricted {... */\n            tag_18:\n                /* \"Campaign.sol\":1122:1129  manager */\n              0x01\n              0x00\n              swap1\n              sload\n              swap1\n              0x0100\n              exp\n              swap1\n              div\n              0xffffffffffffffffffffffffffffffffffffffff\n              and\n                /* \"Campaign.sol\":1108:1129  msg.sender == manager */\n              0xffffffffffffffffffffffffffffffffffffffff\n              and\n                /* \"Campaign.sol\":1108:1118  msg.sender */\n              caller\n                /* \"Campaign.sol\":1108:1129  msg.sender == manager */\n              0xffffffffffffffffffffffffffffffffffffffff\n              and\n              eq\n                /* \"Campaign.sol\":1100:1130  require(msg.sender == manager) */\n              tag_66\n              jumpi\n              0x00\n              dup1\n              revert\n            tag_66:\n                /* \"Campaign.sol\":2369:2392  Request storage request */\n              0x00\n                /* \"Campaign.sol\":2395:2403  requests */\n              dup1\n                /* \"Campaign.sol\":2404:2409  index */\n              dup3\n                /* \"Campaign.sol\":2395:2410  requests[index] */\n              dup2\n              sload\n              dup2\n              lt\n              tag_68\n              jumpi\n              tag_69\n              tag_70\n              jump\t// in\n            tag_69:\n            tag_68:\n              swap1\n              0x00\n              mstore\n              keccak256(0x00, 0x20)\n              swap1\n              0x05\n              mul\n              add\n                /* \"Campaign.sol\":2369:2410  Request storage request = requests[index] */\n              swap1\n              pop\n                /* \"Campaign.sol\":2429:2436  request */\n              dup1\n                /* \"Campaign.sol\":2429:2445  request.complete */\n              0x02\n              add\n              0x14\n              swap1\n              sload\n              swap1\n              0x0100\n              exp\n              swap1\n              div\n              0xff\n              and\n                /* \"Campaign.sol\":2428:2445  !request.complete */\n              iszero\n                /* \"Campaign.sol\":2420:2446  require(!request.complete) */\n              tag_72\n              jumpi\n              0x00\n              dup1\n              revert\n            tag_72:\n                /* \"Campaign.sol\":2506:2507  2 */\n              0x02\n                /* \"Campaign.sol\":2488:2503  numContributors */\n              sload(0x04)\n                /* \"Campaign.sol\":2488:2507  numContributors / 2 */\n              tag_73\n              swap2\n              swap1\n              tag_74\n              jump\t// in\n            tag_73:\n                /* \"Campaign.sol\":2464:2471  request */\n              dup2\n                /* \"Campaign.sol\":2464:2485  request.approvalCount */\n              0x03\n              add\n              sload\n                /* \"Campaign.sol\":2464:2507  request.approvalCount > numContributors / 2 */\n              gt\n                /* \"Campaign.sol\":2456:2508  require(request.approvalCount > numContributors / 2) */\n              tag_75\n              jumpi\n              0x00\n              dup1\n              revert\n            tag_75:\n                /* \"Campaign.sol\":2518:2525  request */\n              dup1\n                /* \"Campaign.sol\":2518:2535  request.recipient */\n              0x02\n              add\n              0x00\n              swap1\n              sload\n              swap1\n              0x0100\n              exp\n              swap1\n              div\n              0xffffffffffffffffffffffffffffffffffffffff\n              and\n                /* \"Campaign.sol\":2518:2544  request.recipient.transfer */\n              0xffffffffffffffffffffffffffffffffffffffff\n              and\n                /* \"Campaign.sol\":2518:2559  request.recipient.transfer(request.value) */\n              0x08fc\n                /* \"Campaign.sol\":2545:2552  request */\n              dup3\n                /* \"Campaign.sol\":2545:2558  request.value */\n              0x01\n              add\n              sload\n                /* \"Campaign.sol\":2518:2559  request.recipient.transfer(request.value) */\n              swap1\n              dup2\n              iszero\n              mul\n              swap1\n              mload(0x40)\n              0x00\n              mload(0x40)\n              dup1\n              dup4\n              sub\n              dup2\n              dup6\n              dup9\n              dup9\n              call\n              swap4\n              pop\n              pop\n              pop\n              pop\n              iszero\n              dup1\n              iszero\n              tag_77\n              jumpi\n              returndatasize\n              0x00\n              dup1\n              returndatacopy\n              revert(0x00, returndatasize)\n            tag_77:\n              pop\n                /* \"Campaign.sol\":2588:2592  true */\n              0x01\n                /* \"Campaign.sol\":2569:2576  request */\n              dup2\n                /* \"Campaign.sol\":2569:2585  request.complete */\n              0x02\n              add\n              0x14\n                /* \"Campaign.sol\":2569:2592  request.complete = true */\n              0x0100\n              exp\n              dup2\n              sload\n              dup2\n              0xff\n              mul\n              not\n              and\n              swap1\n              dup4\n              iszero\n              iszero\n              mul\n              or\n              swap1\n              sstore\n              pop\n                /* \"Campaign.sol\":2359:2599  {... */\n              pop\n                /* \"Campaign.sol\":2301:2599  function finalizeRequest(uint256 index) public restricted {... */\n              pop\n              jump\t// out\n                /* \"Campaign.sol\":2643:3071  function getCampaignDetails()... */\n            tag_21:\n                /* \"Campaign.sol\":2731:2738  uint256 */\n              0x00\n                /* \"Campaign.sol\":2752:2759  uint256 */\n              dup1\n                /* \"Campaign.sol\":2773:2780  uint256 */\n              0x00\n                /* \"Campaign.sol\":2794:2801  uint256 */\n              dup1\n                /* \"Campaign.sol\":2815:2822  address */\n              0x00\n                /* \"Campaign.sol\":2925:2940  minContribution */\n              sload(0x02)\n                /* \"Campaign.sol\":2954:2975  address(this).balance */\n              selfbalance\n                /* \"Campaign.sol\":2989:2997  requests */\n              0x00\n                /* \"Campaign.sol\":2989:3004  requests.length */\n              dup1\n              sload\n              swap1\n              pop\n                /* \"Campaign.sol\":3018:3033  numContributors */\n              sload(0x04)\n                /* \"Campaign.sol\":3047:3054  manager */\n              0x01\n              0x00\n              swap1\n              sload\n              swap1\n              0x0100\n              exp\n              swap1\n              div\n              0xffffffffffffffffffffffffffffffffffffffff\n              and\n                /* \"Campaign.sol\":2904:3064  return (... */\n              swap5\n              pop\n              swap5\n              pop\n              swap5\n              pop\n              swap5\n              pop\n              swap5\n              pop\n                /* \"Campaign.sol\":2643:3071  function getCampaignDetails()... */\n              swap1\n              swap2\n              swap3\n              swap4\n              swap5\n              jump\t// out\n                /* \"Campaign.sol\":977:1021  mapping(address => bool) public contributors */\n            tag_28:\n              mstore(0x20, 0x03)\n              dup1\n              0x00\n              mstore\n              keccak256(0x00, 0x40)\n              0x00\n              swap2\n              pop\n              sload\n              swap1\n              0x0100\n              exp\n              swap1\n              div\n              0xff\n              and\n              dup2\n              jump\t// out\n                /* \"Campaign.sol\":3077:3174  function getRequestsCount() public view returns (uint256) {... */\n            tag_33:\n                /* \"Campaign.sol\":3126:3133  uint256 */\n              0x00\n                /* \"Campaign.sol\":3152:3160  requests */\n              dup1\n                /* \"Campaign.sol\":3152:3167  requests.length */\n              dup1\n              sload\n              swap1\n              pop\n                /* \"Campaign.sol\":3145:3167  return requests.length */\n              swap1\n              pop\n                /* \"Campaign.sol\":3077:3174  function getRequestsCount() public view returns (uint256) {... */\n              swap1\n              jump\t// out\n                /* \"Campaign.sol\":904:926  address public manager */\n            tag_38:\n              0x01\n              0x00\n              swap1\n              sload\n              swap1\n              0x0100\n              exp\n              swap1\n              div\n              0xffffffffffffffffffffffffffffffffffffffff\n              and\n              dup2\n              jump\t// out\n                /* \"Campaign.sol\":873:898  Request[] public requests */\n            tag_44:\n              0x00\n              dup2\n              dup2\n              sload\n              dup2\n              lt\n              tag_80\n              jumpi\n              0x00\n              dup1\n              revert\n            tag_80:\n              swap1\n              0x00\n              mstore\n              keccak256(0x00, 0x20)\n              swap1\n              0x05\n              mul\n              add\n              0x00\n              swap2\n              pop\n              swap1\n              pop\n              dup1\n              0x00\n              add\n              dup1\n              sload\n              tag_82\n              swap1\n              tag_83\n              jump\t// in\n            tag_82:\n              dup1\n              0x1f\n              add\n              0x20\n              dup1\n              swap2\n              div\n              mul\n              0x20\n              add\n              mload(0x40)\n              swap1\n              dup2\n              add\n              0x40\n              mstore\n              dup1\n              swap3\n              swap2\n              swap1\n              dup2\n              dup2\n              mstore\n              0x20\n              add\n              dup3\n              dup1\n              sload\n              tag_84\n              swap1\n              tag_83\n              jump\t// in\n            tag_84:\n              dup1\n              iszero\n              tag_85\n              jumpi\n              dup1\n              0x1f\n              lt\n              tag_86\n              jumpi\n              0x0100\n              dup1\n              dup4\n              sload\n              div\n              mul\n              dup4\n              mstore\n              swap2\n              0x20\n              add\n              swap2\n              jump(tag_85)\n            tag_86:\n              dup3\n              add\n              swap2\n              swap1\n              0x00\n              mstore\n              keccak256(0x00, 0x20)\n              swap1\n            tag_87:\n              dup2\n              sload\n              dup2\n              mstore\n              swap1\n              0x01\n              add\n              swap1\n              0x20\n              add\n              dup1\n              dup4\n              gt\n              tag_87\n              jumpi\n              dup3\n              swap1\n              sub\n              0x1f\n              and\n              dup3\n              add\n              swap2\n            tag_85:\n              pop\n              pop\n              pop\n              pop\n              pop\n              swap1\n              dup1\n              0x01\n              add\n              sload\n              swap1\n              dup1\n              0x02\n              add\n              0x00\n              swap1\n              sload\n              swap1\n              0x0100\n              exp\n              swap1\n              div\n              0xffffffffffffffffffffffffffffffffffffffff\n              and\n              swap1\n              dup1\n              0x02\n              add\n              0x14\n              swap1\n              sload\n              swap1\n              0x0100\n              exp\n              swap1\n              div\n              0xff\n              and\n              swap1\n              dup1\n              0x03\n              add\n              sload\n              swap1\n              pop\n              dup6\n              jump\t// out\n                /* \"Campaign.sol\":1439:1967  function createRequest(... */\n            tag_50:\n                /* \"Campaign.sol\":1122:1129  manager */\n              0x01\n              0x00\n              swap1\n              sload\n              swap1\n              0x0100\n              exp\n              swap1\n              div\n              0xffffffffffffffffffffffffffffffffffffffff\n              and\n                /* \"Campaign.sol\":1108:1129  msg.sender == manager */\n              0xffffffffffffffffffffffffffffffffffffffff\n              and\n                /* \"Campaign.sol\":1108:1118  msg.sender */\n              caller\n                /* \"Campaign.sol\":1108:1129  msg.sender == manager */\n              0xffffffffffffffffffffffffffffffffffffffff\n              and\n              eq\n                /* \"Campaign.sol\":1100:1130  require(msg.sender == manager) */\n              tag_89\n              jumpi\n              0x00\n              dup1\n              revert\n            tag_89:\n                /* \"Campaign.sol\":1681:1707  Request storage newRequest */\n              0x00\n                /* \"Campaign.sol\":1710:1718  requests */\n              dup1\n                /* \"Campaign.sol\":1710:1725  requests.push() */\n              0x01\n              dup2\n              0x01\n              dup2\n              sload\n              add\n              dup1\n              dup3\n              sstore\n              dup1\n              swap2\n              pop\n              pop\n              sub\n              swap1\n              0x00\n              mstore\n              keccak256(0x00, 0x20)\n              swap1\n              0x05\n              mul\n              add\n                /* \"Campaign.sol\":1681:1725  Request storage newRequest = requests.push() */\n              swap1\n              pop\n                /* \"Campaign.sol\":1798:1809  description */\n              dup4\n                /* \"Campaign.sol\":1773:1783  newRequest */\n              dup2\n                /* \"Campaign.sol\":1773:1795  newRequest.description */\n              0x00\n              add\n                /* \"Campaign.sol\":1773:1809  newRequest.description = description */\n              swap1\n              dup1\n              mload\n              swap1\n              0x20\n              add\n              swap1\n              tag_92\n              swap3\n              swap2\n              swap1\n              tag_93\n              jump\t// in\n            tag_92:\n              pop\n                /* \"Campaign.sol\":1838:1843  value */\n              dup3\n                /* \"Campaign.sol\":1819:1829  newRequest */\n              dup2\n                /* \"Campaign.sol\":1819:1835  newRequest.value */\n              0x01\n              add\n                /* \"Campaign.sol\":1819:1843  newRequest.value = value */\n              dup2\n              swap1\n              sstore\n              pop\n                /* \"Campaign.sol\":1876:1885  recipient */\n              dup2\n                /* \"Campaign.sol\":1853:1863  newRequest */\n              dup2\n                /* \"Campaign.sol\":1853:1873  newRequest.recipient */\n              0x02\n              add\n              0x00\n                /* \"Campaign.sol\":1853:1885  newRequest.recipient = recipient */\n              0x0100\n              exp\n              dup2\n              sload\n              dup2\n              0xffffffffffffffffffffffffffffffffffffffff\n              mul\n              not\n              and\n              swap1\n              dup4\n              0xffffffffffffffffffffffffffffffffffffffff\n              and\n              mul\n              or\n              swap1\n              sstore\n              pop\n                /* \"Campaign.sol\":1917:1922  false */\n              0x00\n                /* \"Campaign.sol\":1895:1905  newRequest */\n              dup2\n                /* \"Campaign.sol\":1895:1914  newRequest.complete */\n              0x02\n              add\n              0x14\n                /* \"Campaign.sol\":1895:1922  newRequest.complete = false */\n              0x0100\n              exp\n              dup2\n              sload\n              dup2\n              0xff\n              mul\n              not\n              and\n              swap1\n              dup4\n              iszero\n              iszero\n              mul\n              or\n              swap1\n              sstore\n              pop\n                /* \"Campaign.sol\":1959:1960  0 */\n              0x00\n                /* \"Campaign.sol\":1932:1942  newRequest */\n              dup2\n                /* \"Campaign.sol\":1932:1956  newRequest.approvalCount */\n              0x03\n              add\n                /* \"Campaign.sol\":1932:1960  newRequest.approvalCount = 0 */\n              dup2\n              swap1\n              sstore\n              pop\n                /* \"Campaign.sol\":1587:1967  {... */\n              pop\n                /* \"Campaign.sol\":1439:1967  function createRequest(... */\n              pop\n              pop\n              pop\n              jump\t// out\n                /* \"Campaign.sol\":1027:1061  uint256 public numContributors = 0 */\n            tag_53:\n              sload(0x04)\n              dup2\n              jump\t// out\n                /* \"Campaign.sol\":932:962  uint256 public minContribution */\n            tag_57:\n              sload(0x02)\n              dup2\n              jump\t// out\n                /* \"Campaign.sol\":1275:1433  function contribute() public payable {... */\n            tag_60:\n                /* \"Campaign.sol\":1342:1357  minContribution */\n              sload(0x02)\n                /* \"Campaign.sol\":1330:1339  msg.value */\n              callvalue\n                /* \"Campaign.sol\":1330:1357  msg.value > minContribution */\n              gt\n                /* \"Campaign.sol\":1322:1358  require(msg.value > minContribution) */\n              tag_95\n              jumpi\n              0x00\n              dup1\n              revert\n            tag_95:\n                /* \"Campaign.sol\":1395:1399  true */\n              0x01\n                /* \"Campaign.sol\":1368:1380  contributors */\n              0x03\n                /* \"Campaign.sol\":1368:1392  contributors[msg.sender] */\n              0x00\n                /* \"Campaign.sol\":1381:1391  msg.sender */\n              caller\n                /* \"Campaign.sol\":1368:1392  contributors[msg.sender] */\n              0xffffffffffffffffffffffffffffffffffffffff\n              and\n              0xffffffffffffffffffffffffffffffffffffffff\n              and\n              dup2\n              mstore\n              0x20\n              add\n              swap1\n              dup2\n              mstore\n              0x20\n              add\n              0x00\n              keccak256\n              0x00\n                /* \"Campaign.sol\":1368:1399  contributors[msg.sender] = true */\n              0x0100\n              exp\n              dup2\n              sload\n              dup2\n              0xff\n              mul\n              not\n              and\n              swap1\n              dup4\n              iszero\n              iszero\n              mul\n              or\n              swap1\n              sstore\n              pop\n                /* \"Campaign.sol\":1409:1424  numContributors */\n              0x04\n              0x00\n                /* \"Campaign.sol\":1409:1426  numContributors++ */\n              dup2\n              sload\n              dup1\n              swap3\n              swap2\n              swap1\n              tag_96\n              swap1\n              tag_97\n              jump\t// in\n            tag_96:\n              swap2\n              swap1\n              pop\n              sstore\n              pop\n                /* \"Campaign.sol\":1275:1433  function contribute() public payable {... */\n              jump\t// out\n                /* \"Campaign.sol\":1973:2295  function approveRequest(uint256 index) public {... */\n            tag_64:\n                /* \"Campaign.sol\":2029:2056  Request storage selectedReq */\n              0x00\n                /* \"Campaign.sol\":2059:2067  requests */\n              dup1\n                /* \"Campaign.sol\":2068:2073  index */\n              dup3\n                /* \"Campaign.sol\":2059:2074  requests[index] */\n              dup2\n              sload\n              dup2\n              lt\n              tag_99\n              jumpi\n              tag_100\n              tag_70\n              jump\t// in\n            tag_100:\n            tag_99:\n              swap1\n              0x00\n              mstore\n              keccak256(0x00, 0x20)\n              swap1\n              0x05\n              mul\n              add\n                /* \"Campaign.sol\":2029:2074  Request storage selectedReq = requests[index] */\n              swap1\n              pop\n                /* \"Campaign.sol\":2093:2105  contributors */\n              0x03\n                /* \"Campaign.sol\":2093:2117  contributors[msg.sender] */\n              0x00\n                /* \"Campaign.sol\":2106:2116  msg.sender */\n              caller\n                /* \"Campaign.sol\":2093:2117  contributors[msg.sender] */\n              0xffffffffffffffffffffffffffffffffffffffff\n              and\n              0xffffffffffffffffffffffffffffffffffffffff\n              and\n              dup2\n              mstore\n              0x20\n              add\n              swap1\n              dup2\n              mstore\n              0x20\n              add\n              0x00\n              keccak256\n              0x00\n              swap1\n              sload\n              swap1\n              0x0100\n              exp\n              swap1\n              div\n              0xff\n              and\n                /* \"Campaign.sol\":2085:2118  require(contributors[msg.sender]) */\n              tag_102\n              jumpi\n              0x00\n              dup1\n              revert\n            tag_102:\n                /* \"Campaign.sol\":2137:2148  selectedReq */\n              dup1\n                /* \"Campaign.sol\":2137:2158  selectedReq.approvals */\n              0x04\n              add\n                /* \"Campaign.sol\":2137:2170  selectedReq.approvals[msg.sender] */\n              0x00\n                /* \"Campaign.sol\":2159:2169  msg.sender */\n              caller\n                /* \"Campaign.sol\":2137:2170  selectedReq.approvals[msg.sender] */\n              0xffffffffffffffffffffffffffffffffffffffff\n              and\n              0xffffffffffffffffffffffffffffffffffffffff\n              and\n              dup2\n              mstore\n              0x20\n              add\n              swap1\n              dup2\n              mstore\n              0x20\n              add\n              0x00\n              keccak256\n              0x00\n              swap1\n              sload\n              swap1\n              0x0100\n              exp\n              swap1\n              div\n              0xff\n              and\n                /* \"Campaign.sol\":2136:2170  !selectedReq.approvals[msg.sender] */\n              iszero\n                /* \"Campaign.sol\":2128:2171  require(!selectedReq.approvals[msg.sender]) */\n              tag_103\n              jumpi\n              0x00\n              dup1\n              revert\n            tag_103:\n                /* \"Campaign.sol\":2247:2251  true */\n              0x01\n                /* \"Campaign.sol\":2211:2222  selectedReq */\n              dup2\n                /* \"Campaign.sol\":2211:2232  selectedReq.approvals */\n              0x04\n              add\n                /* \"Campaign.sol\":2211:2244  selectedReq.approvals[msg.sender] */\n              0x00\n                /* \"Campaign.sol\":2233:2243  msg.sender */\n              caller\n                /* \"Campaign.sol\":2211:2244  selectedReq.approvals[msg.sender] */\n              0xffffffffffffffffffffffffffffffffffffffff\n              and\n              0xffffffffffffffffffffffffffffffffffffffff\n              and\n              dup2\n              mstore\n              0x20\n              add\n              swap1\n              dup2\n              mstore\n              0x20\n              add\n              0x00\n              keccak256\n              0x00\n                /* \"Campaign.sol\":2211:2251  selectedReq.approvals[msg.sender] = true */\n              0x0100\n              exp\n              dup2\n              sload\n              dup2\n              0xff\n              mul\n              not\n              and\n              swap1\n              dup4\n              iszero\n              iszero\n              mul\n              or\n              swap1\n              sstore\n              pop\n                /* \"Campaign.sol\":2261:2272  selectedReq */\n              dup1\n                /* \"Campaign.sol\":2261:2286  selectedReq.approvalCount */\n              0x03\n              add\n              0x00\n                /* \"Campaign.sol\":2261:2288  selectedReq.approvalCount++ */\n              dup2\n              sload\n              dup1\n              swap3\n              swap2\n              swap1\n              tag_104\n              swap1\n              tag_97\n              jump\t// in\n            tag_104:\n              swap2\n              swap1\n              pop\n              sstore\n              pop\n                /* \"Campaign.sol\":2019:2295  {... */\n              pop\n                /* \"Campaign.sol\":1973:2295  function approveRequest(uint256 index) public {... */\n              pop\n              jump\t// out\n            tag_93:\n              dup3\n              dup1\n              sload\n              tag_105\n              swap1\n              tag_83\n              jump\t// in\n            tag_105:\n              swap1\n              0x00\n              mstore\n              keccak256(0x00, 0x20)\n              swap1\n              0x1f\n              add\n              0x20\n              swap1\n              div\n              dup2\n              add\n              swap3\n              dup3\n              tag_107\n              jumpi\n              0x00\n              dup6\n              sstore\n              jump(tag_106)\n            tag_107:\n              dup3\n              0x1f\n              lt\n              tag_108\n              jumpi\n              dup1\n              mload\n              not(0xff)\n              and\n              dup4\n              dup1\n              add\n              or\n              dup6\n              sstore\n              jump(tag_106)\n            tag_108:\n              dup3\n              dup1\n              add\n              0x01\n              add\n              dup6\n              sstore\n              dup3\n              iszero\n              tag_106\n              jumpi\n              swap2\n              dup3\n              add\n            tag_109:\n              dup3\n              dup2\n              gt\n              iszero\n              tag_110\n              jumpi\n              dup3\n              mload\n              dup3\n              sstore\n              swap2\n              0x20\n              add\n              swap2\n              swap1\n              0x01\n              add\n              swap1\n              jump(tag_109)\n            tag_110:\n            tag_106:\n              pop\n              swap1\n              pop\n              tag_111\n              swap2\n              swap1\n              tag_112\n              jump\t// in\n            tag_111:\n              pop\n              swap1\n              jump\t// out\n            tag_112:\n            tag_113:\n              dup1\n              dup3\n              gt\n              iszero\n              tag_114\n              jumpi\n              0x00\n              dup2\n              0x00\n              swap1\n              sstore\n              pop\n              0x01\n              add\n              jump(tag_113)\n            tag_114:\n              pop\n              swap1\n              jump\t// out\n                /* \"#utility.yul\":7:82   */\n            tag_115:\n                /* \"#utility.yul\":40:46   */\n              0x00\n                /* \"#utility.yul\":73:75   */\n              0x40\n                /* \"#utility.yul\":67:76   */\n              mload\n                /* \"#utility.yul\":57:76   */\n              swap1\n              pop\n                /* \"#utility.yul\":7:82   */\n              swap1\n              jump\t// out\n                /* \"#utility.yul\":88:205   */\n            tag_116:\n                /* \"#utility.yul\":197:198   */\n              0x00\n                /* \"#utility.yul\":194:195   */\n              dup1\n                /* \"#utility.yul\":187:199   */\n              revert\n                /* \"#utility.yul\":211:328   */\n            tag_117:\n                /* \"#utility.yul\":320:321   */\n              0x00\n                /* \"#utility.yul\":317:318   */\n              dup1\n                /* \"#utility.yul\":310:322   */\n              revert\n                /* \"#utility.yul\":334:411   */\n            tag_118:\n                /* \"#utility.yul\":371:378   */\n              0x00\n                /* \"#utility.yul\":400:405   */\n              dup2\n                /* \"#utility.yul\":389:405   */\n              swap1\n              pop\n                /* \"#utility.yul\":334:411   */\n              swap2\n              swap1\n              pop\n              jump\t// out\n                /* \"#utility.yul\":417:539   */\n            tag_119:\n                /* \"#utility.yul\":490:514   */\n              tag_156\n                /* \"#utility.yul\":508:513   */\n              dup2\n                /* \"#utility.yul\":490:514   */\n              tag_118\n              jump\t// in\n            tag_156:\n                /* \"#utility.yul\":483:488   */\n              dup2\n                /* \"#utility.yul\":480:515   */\n              eq\n                /* \"#utility.yul\":470:533   */\n              tag_157\n              jumpi\n                /* \"#utility.yul\":529:530   */\n              0x00\n                /* \"#utility.yul\":526:527   */\n              dup1\n                /* \"#utility.yul\":519:531   */\n              revert\n                /* \"#utility.yul\":470:533   */\n            tag_157:\n                /* \"#utility.yul\":417:539   */\n              pop\n              jump\t// out\n                /* \"#utility.yul\":545:684   */\n            tag_120:\n                /* \"#utility.yul\":591:596   */\n              0x00\n                /* \"#utility.yul\":629:635   */\n              dup2\n                /* \"#utility.yul\":616:636   */\n              calldataload\n                /* \"#utility.yul\":607:636   */\n              swap1\n              pop\n                /* \"#utility.yul\":645:678   */\n              tag_159\n                /* \"#utility.yul\":672:677   */\n              dup2\n                /* \"#utility.yul\":645:678   */\n              tag_119\n              jump\t// in\n            tag_159:\n                /* \"#utility.yul\":545:684   */\n              swap3\n              swap2\n              pop\n              pop\n              jump\t// out\n                /* \"#utility.yul\":690:1019   */\n            tag_17:\n                /* \"#utility.yul\":749:755   */\n              0x00\n                /* \"#utility.yul\":798:800   */\n              0x20\n                /* \"#utility.yul\":786:795   */\n              dup3\n                /* \"#utility.yul\":777:784   */\n              dup5\n                /* \"#utility.yul\":773:796   */\n              sub\n                /* \"#utility.yul\":769:801   */\n              slt\n                /* \"#utility.yul\":766:885   */\n              iszero\n              tag_161\n              jumpi\n                /* \"#utility.yul\":804:883   */\n              tag_162\n              tag_116\n              jump\t// in\n            tag_162:\n                /* \"#utility.yul\":766:885   */\n            tag_161:\n                /* \"#utility.yul\":924:925   */\n              0x00\n                /* \"#utility.yul\":949:1002   */\n              tag_163\n                /* \"#utility.yul\":994:1001   */\n              dup5\n                /* \"#utility.yul\":985:991   */\n              dup3\n                /* \"#utility.yul\":974:983   */\n              dup6\n                /* \"#utility.yul\":970:992   */\n              add\n                /* \"#utility.yul\":949:1002   */\n              tag_120\n              jump\t// in\n            tag_163:\n                /* \"#utility.yul\":939:1002   */\n              swap2\n              pop\n                /* \"#utility.yul\":895:1012   */\n              pop\n                /* \"#utility.yul\":690:1019   */\n              swap3\n              swap2\n              pop\n              pop\n              jump\t// out\n                /* \"#utility.yul\":1025:1143   */\n            tag_121:\n                /* \"#utility.yul\":1112:1136   */\n              tag_165\n                /* \"#utility.yul\":1130:1135   */\n              dup2\n                /* \"#utility.yul\":1112:1136   */\n              tag_118\n              jump\t// in\n            tag_165:\n                /* \"#utility.yul\":1107:1110   */\n              dup3\n                /* \"#utility.yul\":1100:1137   */\n              mstore\n                /* \"#utility.yul\":1025:1143   */\n              pop\n              pop\n              jump\t// out\n                /* \"#utility.yul\":1149:1275   */\n            tag_122:\n                /* \"#utility.yul\":1186:1193   */\n              0x00\n                /* \"#utility.yul\":1226:1268   */\n              0xffffffffffffffffffffffffffffffffffffffff\n                /* \"#utility.yul\":1219:1224   */\n              dup3\n                /* \"#utility.yul\":1215:1269   */\n              and\n                /* \"#utility.yul\":1204:1269   */\n              swap1\n              pop\n                /* \"#utility.yul\":1149:1275   */\n              swap2\n              swap1\n              pop\n              jump\t// out\n                /* \"#utility.yul\":1281:1377   */\n            tag_123:\n                /* \"#utility.yul\":1318:1325   */\n              0x00\n                /* \"#utility.yul\":1347:1371   */\n              tag_168\n                /* \"#utility.yul\":1365:1370   */\n              dup3\n                /* \"#utility.yul\":1347:1371   */\n              tag_122\n              jump\t// in\n            tag_168:\n                /* \"#utility.yul\":1336:1371   */\n              swap1\n              pop\n                /* \"#utility.yul\":1281:1377   */\n              swap2\n              swap1\n              pop\n              jump\t// out\n                /* \"#utility.yul\":1383:1501   */\n            tag_124:\n                /* \"#utility.yul\":1470:1494   */\n              tag_170\n                /* \"#utility.yul\":1488:1493   */\n              dup2\n                /* \"#utility.yul\":1470:1494   */\n              tag_123\n              jump\t// in\n            tag_170:\n                /* \"#utility.yul\":1465:1468   */\n              dup3\n                /* \"#utility.yul\":1458:1495   */\n              mstore\n                /* \"#utility.yul\":1383:1501   */\n              pop\n              pop\n              jump\t// out\n                /* \"#utility.yul\":1507:2171   */\n            tag_23:\n                /* \"#utility.yul\":1712:1716   */\n              0x00\n                /* \"#utility.yul\":1750:1753   */\n              0xa0\n                /* \"#utility.yul\":1739:1748   */\n              dup3\n                /* \"#utility.yul\":1735:1754   */\n              add\n                /* \"#utility.yul\":1727:1754   */\n              swap1\n              pop\n                /* \"#utility.yul\":1764:1835   */\n              tag_172\n                /* \"#utility.yul\":1832:1833   */\n              0x00\n                /* \"#utility.yul\":1821:1830   */\n              dup4\n                /* \"#utility.yul\":1817:1834   */\n              add\n                /* \"#utility.yul\":1808:1814   */\n              dup9\n                /* \"#utility.yul\":1764:1835   */\n              tag_121\n              jump\t// in\n            tag_172:\n                /* \"#utility.yul\":1845:1917   */\n              tag_173\n                /* \"#utility.yul\":1913:1915   */\n              0x20\n                /* \"#utility.yul\":1902:1911   */\n              dup4\n                /* \"#utility.yul\":1898:1916   */\n              add\n                /* \"#utility.yul\":1889:1895   */\n              dup8\n                /* \"#utility.yul\":1845:1917   */\n              tag_121\n              jump\t// in\n            tag_173:\n                /* \"#utility.yul\":1927:1999   */\n              tag_174\n                /* \"#utility.yul\":1995:1997   */\n              0x40\n                /* \"#utility.yul\":1984:1993   */\n              dup4\n                /* \"#utility.yul\":1980:1998   */\n              add\n                /* \"#utility.yul\":1971:1977   */\n              dup7\n                /* \"#utility.yul\":1927:1999   */\n              tag_121\n              jump\t// in\n            tag_174:\n                /* \"#utility.yul\":2009:2081   */\n              tag_175\n                /* \"#utility.yul\":2077:2079   */\n              0x60\n                /* \"#utility.yul\":2066:2075   */\n              dup4\n                /* \"#utility.yul\":2062:2080   */\n              add\n                /* \"#utility.yul\":2053:2059   */\n              dup6\n                /* \"#utility.yul\":2009:2081   */\n              tag_121\n              jump\t// in\n            tag_175:\n                /* \"#utility.yul\":2091:2164   */\n              tag_176\n                /* \"#utility.yul\":2159:2162   */\n              0x80\n                /* \"#utility.yul\":2148:2157   */\n              dup4\n                /* \"#utility.yul\":2144:2163   */\n              add\n                /* \"#utility.yul\":2135:2141   */\n              dup5\n                /* \"#utility.yul\":2091:2164   */\n              tag_124\n              jump\t// in\n            tag_176:\n                /* \"#utility.yul\":1507:2171   */\n              swap7\n              swap6\n              pop\n              pop\n              pop\n              pop\n              pop\n              pop\n              jump\t// out\n                /* \"#utility.yul\":2177:2299   */\n            tag_125:\n                /* \"#utility.yul\":2250:2274   */\n              tag_178\n                /* \"#utility.yul\":2268:2273   */\n              dup2\n                /* \"#utility.yul\":2250:2274   */\n              tag_123\n              jump\t// in\n            tag_178:\n                /* \"#utility.yul\":2243:2248   */\n              dup2\n                /* \"#utility.yul\":2240:2275   */\n              eq\n                /* \"#utility.yul\":2230:2293   */\n              tag_179\n              jumpi\n                /* \"#utility.yul\":2289:2290   */\n              0x00\n                /* \"#utility.yul\":2286:2287   */\n              dup1\n                /* \"#utility.yul\":2279:2291   */\n              revert\n                /* \"#utility.yul\":2230:2293   */\n            tag_179:\n                /* \"#utility.yul\":2177:2299   */\n              pop\n              jump\t// out\n                /* \"#utility.yul\":2305:2444   */\n            tag_126:\n                /* \"#utility.yul\":2351:2356   */\n              0x00\n                /* \"#utility.yul\":2389:2395   */\n              dup2\n                /* \"#utility.yul\":2376:2396   */\n              calldataload\n                /* \"#utility.yul\":2367:2396   */\n              swap1\n              pop\n                /* \"#utility.yul\":2405:2438   */\n              tag_181\n                /* \"#utility.yul\":2432:2437   */\n              dup2\n                /* \"#utility.yul\":2405:2438   */\n              tag_125\n              jump\t// in\n            tag_181:\n                /* \"#utility.yul\":2305:2444   */\n              swap3\n              swap2\n              pop\n              pop\n              jump\t// out\n                /* \"#utility.yul\":2450:2779   */\n            tag_27:\n                /* \"#utility.yul\":2509:2515   */\n              0x00\n                /* \"#utility.yul\":2558:2560   */\n              0x20\n                /* \"#utility.yul\":2546:2555   */\n              dup3\n                /* \"#utility.yul\":2537:2544   */\n              dup5\n                /* \"#utility.yul\":2533:2556   */\n              sub\n                /* \"#utility.yul\":2529:2561   */\n              slt\n                /* \"#utility.yul\":2526:2645   */\n              iszero\n              tag_183\n              jumpi\n                /* \"#utility.yul\":2564:2643   */\n              tag_184\n              tag_116\n              jump\t// in\n            tag_184:\n                /* \"#utility.yul\":2526:2645   */\n            tag_183:\n                /* \"#utility.yul\":2684:2685   */\n              0x00\n                /* \"#utility.yul\":2709:2762   */\n              tag_185\n                /* \"#utility.yul\":2754:2761   */\n              dup5\n                /* \"#utility.yul\":2745:2751   */\n              dup3\n                /* \"#utility.yul\":2734:2743   */\n              dup6\n                /* \"#utility.yul\":2730:2752   */\n              add\n                /* \"#utility.yul\":2709:2762   */\n              tag_126\n              jump\t// in\n            tag_185:\n                /* \"#utility.yul\":2699:2762   */\n              swap2\n              pop\n                /* \"#utility.yul\":2655:2772   */\n              pop\n                /* \"#utility.yul\":2450:2779   */\n              swap3\n              swap2\n              pop\n              pop\n              jump\t// out\n                /* \"#utility.yul\":2785:2875   */\n            tag_127:\n                /* \"#utility.yul\":2819:2826   */\n              0x00\n                /* \"#utility.yul\":2862:2867   */\n              dup2\n                /* \"#utility.yul\":2855:2868   */\n              iszero\n                /* \"#utility.yul\":2848:2869   */\n              iszero\n                /* \"#utility.yul\":2837:2869   */\n              swap1\n              pop\n                /* \"#utility.yul\":2785:2875   */\n              swap2\n              swap1\n              pop\n              jump\t// out\n                /* \"#utility.yul\":2881:2990   */\n            tag_128:\n                /* \"#utility.yul\":2962:2983   */\n              tag_188\n                /* \"#utility.yul\":2977:2982   */\n              dup2\n                /* \"#utility.yul\":2962:2983   */\n              tag_127\n              jump\t// in\n            tag_188:\n                /* \"#utility.yul\":2957:2960   */\n              dup3\n                /* \"#utility.yul\":2950:2984   */\n              mstore\n                /* \"#utility.yul\":2881:2990   */\n              pop\n              pop\n              jump\t// out\n                /* \"#utility.yul\":2996:3206   */\n            tag_30:\n                /* \"#utility.yul\":3083:3087   */\n              0x00\n                /* \"#utility.yul\":3121:3123   */\n              0x20\n                /* \"#utility.yul\":3110:3119   */\n              dup3\n                /* \"#utility.yul\":3106:3124   */\n              add\n                /* \"#utility.yul\":3098:3124   */\n              swap1\n              pop\n                /* \"#utility.yul\":3134:3199   */\n              tag_190\n                /* \"#utility.yul\":3196:3197   */\n              0x00\n                /* \"#utility.yul\":3185:3194   */\n              dup4\n                /* \"#utility.yul\":3181:3198   */\n              add\n                /* \"#utility.yul\":3172:3178   */\n              dup5\n                /* \"#utility.yul\":3134:3199   */\n              tag_128\n              jump\t// in\n            tag_190:\n                /* \"#utility.yul\":2996:3206   */\n              swap3\n              swap2\n              pop\n              pop\n              jump\t// out\n                /* \"#utility.yul\":3212:3434   */\n            tag_35:\n                /* \"#utility.yul\":3305:3309   */\n              0x00\n                /* \"#utility.yul\":3343:3345   */\n              0x20\n                /* \"#utility.yul\":3332:3341   */\n              dup3\n                /* \"#utility.yul\":3328:3346   */\n              add\n                /* \"#utility.yul\":3320:3346   */\n              swap1\n              pop\n                /* \"#utility.yul\":3356:3427   */\n              tag_192\n                /* \"#utility.yul\":3424:3425   */\n              0x00\n                /* \"#utility.yul\":3413:3422   */\n              dup4\n                /* \"#utility.yul\":3409:3426   */\n              add\n                /* \"#utility.yul\":3400:3406   */\n              dup5\n                /* \"#utility.yul\":3356:3427   */\n              tag_121\n              jump\t// in\n            tag_192:\n                /* \"#utility.yul\":3212:3434   */\n              swap3\n              swap2\n              pop\n              pop\n              jump\t// out\n                /* \"#utility.yul\":3440:3662   */\n            tag_40:\n                /* \"#utility.yul\":3533:3537   */\n              0x00\n                /* \"#utility.yul\":3571:3573   */\n              0x20\n                /* \"#utility.yul\":3560:3569   */\n              dup3\n                /* \"#utility.yul\":3556:3574   */\n              add\n                /* \"#utility.yul\":3548:3574   */\n              swap1\n              pop\n                /* \"#utility.yul\":3584:3655   */\n              tag_194\n                /* \"#utility.yul\":3652:3653   */\n              0x00\n                /* \"#utility.yul\":3641:3650   */\n              dup4\n                /* \"#utility.yul\":3637:3654   */\n              add\n                /* \"#utility.yul\":3628:3634   */\n              dup5\n                /* \"#utility.yul\":3584:3655   */\n              tag_124\n              jump\t// in\n            tag_194:\n                /* \"#utility.yul\":3440:3662   */\n              swap3\n              swap2\n              pop\n              pop\n              jump\t// out\n                /* \"#utility.yul\":3668:3767   */\n            tag_129:\n                /* \"#utility.yul\":3720:3726   */\n              0x00\n                /* \"#utility.yul\":3754:3759   */\n              dup2\n                /* \"#utility.yul\":3748:3760   */\n              mload\n                /* \"#utility.yul\":3738:3760   */\n              swap1\n              pop\n                /* \"#utility.yul\":3668:3767   */\n              swap2\n              swap1\n              pop\n              jump\t// out\n                /* \"#utility.yul\":3773:3942   */\n            tag_130:\n                /* \"#utility.yul\":3857:3868   */\n              0x00\n                /* \"#utility.yul\":3891:3897   */\n              dup3\n                /* \"#utility.yul\":3886:3889   */\n              dup3\n                /* \"#utility.yul\":3879:3898   */\n              mstore\n                /* \"#utility.yul\":3931:3935   */\n              0x20\n                /* \"#utility.yul\":3926:3929   */\n              dup3\n                /* \"#utility.yul\":3922:3936   */\n              add\n                /* \"#utility.yul\":3907:3936   */\n              swap1\n              pop\n                /* \"#utility.yul\":3773:3942   */\n              swap3\n              swap2\n              pop\n              pop\n              jump\t// out\n                /* \"#utility.yul\":3948:4255   */\n            tag_131:\n                /* \"#utility.yul\":4016:4017   */\n              0x00\n                /* \"#utility.yul\":4026:4139   */\n            tag_198:\n                /* \"#utility.yul\":4040:4046   */\n              dup4\n                /* \"#utility.yul\":4037:4038   */\n              dup2\n                /* \"#utility.yul\":4034:4047   */\n              lt\n                /* \"#utility.yul\":4026:4139   */\n              iszero\n              tag_200\n              jumpi\n                /* \"#utility.yul\":4125:4126   */\n              dup1\n                /* \"#utility.yul\":4120:4123   */\n              dup3\n                /* \"#utility.yul\":4116:4127   */\n              add\n                /* \"#utility.yul\":4110:4128   */\n              mload\n                /* \"#utility.yul\":4106:4107   */\n              dup2\n                /* \"#utility.yul\":4101:4104   */\n              dup5\n                /* \"#utility.yul\":4097:4108   */\n              add\n                /* \"#utility.yul\":4090:4129   */\n              mstore\n                /* \"#utility.yul\":4062:4064   */\n              0x20\n                /* \"#utility.yul\":4059:4060   */\n              dup2\n                /* \"#utility.yul\":4055:4065   */\n              add\n                /* \"#utility.yul\":4050:4065   */\n              swap1\n              pop\n                /* \"#utility.yul\":4026:4139   */\n              jump(tag_198)\n            tag_200:\n                /* \"#utility.yul\":4157:4163   */\n              dup4\n                /* \"#utility.yul\":4154:4155   */\n              dup2\n                /* \"#utility.yul\":4151:4164   */\n              gt\n                /* \"#utility.yul\":4148:4249   */\n              iszero\n              tag_201\n              jumpi\n                /* \"#utility.yul\":4237:4238   */\n              0x00\n                /* \"#utility.yul\":4228:4234   */\n              dup5\n                /* \"#utility.yul\":4223:4226   */\n              dup5\n                /* \"#utility.yul\":4219:4235   */\n              add\n                /* \"#utility.yul\":4212:4239   */\n              mstore\n                /* \"#utility.yul\":4148:4249   */\n            tag_201:\n                /* \"#utility.yul\":3997:4255   */\n              pop\n                /* \"#utility.yul\":3948:4255   */\n              pop\n              pop\n              pop\n              jump\t// out\n                /* \"#utility.yul\":4261:4363   */\n            tag_132:\n                /* \"#utility.yul\":4302:4308   */\n              0x00\n                /* \"#utility.yul\":4353:4355   */\n              0x1f\n                /* \"#utility.yul\":4349:4356   */\n              not\n                /* \"#utility.yul\":4344:4346   */\n              0x1f\n                /* \"#utility.yul\":4337:4342   */\n              dup4\n                /* \"#utility.yul\":4333:4347   */\n              add\n                /* \"#utility.yul\":4329:4357   */\n              and\n                /* \"#utility.yul\":4319:4357   */\n              swap1\n              pop\n                /* \"#utility.yul\":4261:4363   */\n              swap2\n              swap1\n              pop\n              jump\t// out\n                /* \"#utility.yul\":4369:4733   */\n            tag_133:\n                /* \"#utility.yul\":4457:4460   */\n              0x00\n                /* \"#utility.yul\":4485:4524   */\n              tag_204\n                /* \"#utility.yul\":4518:4523   */\n              dup3\n                /* \"#utility.yul\":4485:4524   */\n              tag_129\n              jump\t// in\n            tag_204:\n                /* \"#utility.yul\":4540:4611   */\n              tag_205\n                /* \"#utility.yul\":4604:4610   */\n              dup2\n                /* \"#utility.yul\":4599:4602   */\n              dup6\n                /* \"#utility.yul\":4540:4611   */\n              tag_130\n              jump\t// in\n            tag_205:\n                /* \"#utility.yul\":4533:4611   */\n              swap4\n              pop\n                /* \"#utility.yul\":4620:4672   */\n              tag_206\n                /* \"#utility.yul\":4665:4671   */\n              dup2\n                /* \"#utility.yul\":4660:4663   */\n              dup6\n                /* \"#utility.yul\":4653:4657   */\n              0x20\n                /* \"#utility.yul\":4646:4651   */\n              dup7\n                /* \"#utility.yul\":4642:4658   */\n              add\n                /* \"#utility.yul\":4620:4672   */\n              tag_131\n              jump\t// in\n            tag_206:\n                /* \"#utility.yul\":4697:4726   */\n              tag_207\n                /* \"#utility.yul\":4719:4725   */\n              dup2\n                /* \"#utility.yul\":4697:4726   */\n              tag_132\n              jump\t// in\n            tag_207:\n                /* \"#utility.yul\":4692:4695   */\n              dup5\n                /* \"#utility.yul\":4688:4727   */\n              add\n                /* \"#utility.yul\":4681:4727   */\n              swap2\n              pop\n                /* \"#utility.yul\":4461:4733   */\n              pop\n                /* \"#utility.yul\":4369:4733   */\n              swap3\n              swap2\n              pop\n              pop\n              jump\t// out\n                /* \"#utility.yul\":4739:4843   */\n            tag_134:\n                /* \"#utility.yul\":4784:4791   */\n              0x00\n                /* \"#utility.yul\":4813:4837   */\n              tag_209\n                /* \"#utility.yul\":4831:4836   */\n              dup3\n                /* \"#utility.yul\":4813:4837   */\n              tag_122\n              jump\t// in\n            tag_209:\n                /* \"#utility.yul\":4802:4837   */\n              swap1\n              pop\n                /* \"#utility.yul\":4739:4843   */\n              swap2\n              swap1\n              pop\n              jump\t// out\n                /* \"#utility.yul\":4849:4991   */\n            tag_135:\n                /* \"#utility.yul\":4952:4984   */\n              tag_211\n                /* \"#utility.yul\":4978:4983   */\n              dup2\n                /* \"#utility.yul\":4952:4984   */\n              tag_134\n              jump\t// in\n            tag_211:\n                /* \"#utility.yul\":4947:4950   */\n              dup3\n                /* \"#utility.yul\":4940:4985   */\n              mstore\n                /* \"#utility.yul\":4849:4991   */\n              pop\n              pop\n              jump\t// out\n                /* \"#utility.yul\":4997:5772   */\n            tag_46:\n                /* \"#utility.yul\":5232:5236   */\n              0x00\n                /* \"#utility.yul\":5270:5273   */\n              0xa0\n                /* \"#utility.yul\":5259:5268   */\n              dup3\n                /* \"#utility.yul\":5255:5274   */\n              add\n                /* \"#utility.yul\":5247:5274   */\n              swap1\n              pop\n                /* \"#utility.yul\":5320:5329   */\n              dup2\n                /* \"#utility.yul\":5314:5318   */\n              dup2\n                /* \"#utility.yul\":5310:5330   */\n              sub\n                /* \"#utility.yul\":5306:5307   */\n              0x00\n                /* \"#utility.yul\":5295:5304   */\n              dup4\n                /* \"#utility.yul\":5291:5308   */\n              add\n                /* \"#utility.yul\":5284:5331   */\n              mstore\n                /* \"#utility.yul\":5348:5426   */\n              tag_213\n                /* \"#utility.yul\":5421:5425   */\n              dup2\n                /* \"#utility.yul\":5412:5418   */\n              dup9\n                /* \"#utility.yul\":5348:5426   */\n              tag_133\n              jump\t// in\n            tag_213:\n                /* \"#utility.yul\":5340:5426   */\n              swap1\n              pop\n                /* \"#utility.yul\":5436:5508   */\n              tag_214\n                /* \"#utility.yul\":5504:5506   */\n              0x20\n                /* \"#utility.yul\":5493:5502   */\n              dup4\n                /* \"#utility.yul\":5489:5507   */\n              add\n                /* \"#utility.yul\":5480:5486   */\n              dup8\n                /* \"#utility.yul\":5436:5508   */\n              tag_121\n              jump\t// in\n            tag_214:\n                /* \"#utility.yul\":5518:5606   */\n              tag_215\n                /* \"#utility.yul\":5602:5604   */\n              0x40\n                /* \"#utility.yul\":5591:5600   */\n              dup4\n                /* \"#utility.yul\":5587:5605   */\n              add\n                /* \"#utility.yul\":5578:5584   */\n              dup7\n                /* \"#utility.yul\":5518:5606   */\n              tag_135\n              jump\t// in\n            tag_215:\n                /* \"#utility.yul\":5616:5682   */\n              tag_216\n                /* \"#utility.yul\":5678:5680   */\n              0x60\n                /* \"#utility.yul\":5667:5676   */\n              dup4\n                /* \"#utility.yul\":5663:5681   */\n              add\n                /* \"#utility.yul\":5654:5660   */\n              dup6\n                /* \"#utility.yul\":5616:5682   */\n              tag_128\n              jump\t// in\n            tag_216:\n                /* \"#utility.yul\":5692:5765   */\n              tag_217\n                /* \"#utility.yul\":5760:5763   */\n              0x80\n                /* \"#utility.yul\":5749:5758   */\n              dup4\n                /* \"#utility.yul\":5745:5764   */\n              add\n                /* \"#utility.yul\":5736:5742   */\n              dup5\n                /* \"#utility.yul\":5692:5765   */\n              tag_121\n              jump\t// in\n            tag_217:\n                /* \"#utility.yul\":4997:5772   */\n              swap7\n              swap6\n              pop\n              pop\n              pop\n              pop\n              pop\n              pop\n              jump\t// out\n                /* \"#utility.yul\":5778:5895   */\n            tag_136:\n                /* \"#utility.yul\":5887:5888   */\n              0x00\n                /* \"#utility.yul\":5884:5885   */\n              dup1\n                /* \"#utility.yul\":5877:5889   */\n              revert\n                /* \"#utility.yul\":5901:6018   */\n            tag_137:\n                /* \"#utility.yul\":6010:6011   */\n              0x00\n                /* \"#utility.yul\":6007:6008   */\n              dup1\n                /* \"#utility.yul\":6000:6012   */\n              revert\n                /* \"#utility.yul\":6024:6204   */\n            tag_138:\n                /* \"#utility.yul\":6072:6149   */\n              0x4e487b7100000000000000000000000000000000000000000000000000000000\n                /* \"#utility.yul\":6069:6070   */\n              0x00\n                /* \"#utility.yul\":6062:6150   */\n              mstore\n                /* \"#utility.yul\":6169:6173   */\n              0x41\n                /* \"#utility.yul\":6166:6167   */\n              0x04\n                /* \"#utility.yul\":6159:6174   */\n              mstore\n                /* \"#utility.yul\":6193:6197   */\n              0x24\n                /* \"#utility.yul\":6190:6191   */\n              0x00\n                /* \"#utility.yul\":6183:6198   */\n              revert\n                /* \"#utility.yul\":6210:6491   */\n            tag_139:\n                /* \"#utility.yul\":6293:6320   */\n              tag_222\n                /* \"#utility.yul\":6315:6319   */\n              dup3\n                /* \"#utility.yul\":6293:6320   */\n              tag_132\n              jump\t// in\n            tag_222:\n                /* \"#utility.yul\":6285:6291   */\n              dup2\n                /* \"#utility.yul\":6281:6321   */\n              add\n                /* \"#utility.yul\":6423:6429   */\n              dup2\n                /* \"#utility.yul\":6411:6421   */\n              dup2\n                /* \"#utility.yul\":6408:6430   */\n              lt\n                /* \"#utility.yul\":6387:6405   */\n              0xffffffffffffffff\n                /* \"#utility.yul\":6375:6385   */\n              dup3\n                /* \"#utility.yul\":6372:6406   */\n              gt\n                /* \"#utility.yul\":6369:6431   */\n              or\n                /* \"#utility.yul\":6366:6454   */\n              iszero\n              tag_223\n              jumpi\n                /* \"#utility.yul\":6434:6452   */\n              tag_224\n              tag_138\n              jump\t// in\n            tag_224:\n                /* \"#utility.yul\":6366:6454   */\n            tag_223:\n                /* \"#utility.yul\":6474:6484   */\n              dup1\n                /* \"#utility.yul\":6470:6472   */\n              0x40\n                /* \"#utility.yul\":6463:6485   */\n              mstore\n                /* \"#utility.yul\":6253:6491   */\n              pop\n                /* \"#utility.yul\":6210:6491   */\n              pop\n              pop\n              jump\t// out\n                /* \"#utility.yul\":6497:6626   */\n            tag_140:\n                /* \"#utility.yul\":6531:6537   */\n              0x00\n                /* \"#utility.yul\":6558:6578   */\n              tag_226\n              tag_115\n              jump\t// in\n            tag_226:\n                /* \"#utility.yul\":6548:6578   */\n              swap1\n              pop\n                /* \"#utility.yul\":6587:6620   */\n              tag_227\n                /* \"#utility.yul\":6615:6619   */\n              dup3\n                /* \"#utility.yul\":6607:6613   */\n              dup3\n                /* \"#utility.yul\":6587:6620   */\n              tag_139\n              jump\t// in\n            tag_227:\n                /* \"#utility.yul\":6497:6626   */\n              swap2\n              swap1\n              pop\n              jump\t// out\n                /* \"#utility.yul\":6632:6940   */\n            tag_141:\n                /* \"#utility.yul\":6694:6698   */\n              0x00\n                /* \"#utility.yul\":6784:6802   */\n              0xffffffffffffffff\n                /* \"#utility.yul\":6776:6782   */\n              dup3\n                /* \"#utility.yul\":6773:6803   */\n              gt\n                /* \"#utility.yul\":6770:6826   */\n              iszero\n              tag_229\n              jumpi\n                /* \"#utility.yul\":6806:6824   */\n              tag_230\n              tag_138\n              jump\t// in\n            tag_230:\n                /* \"#utility.yul\":6770:6826   */\n            tag_229:\n                /* \"#utility.yul\":6844:6873   */\n              tag_231\n                /* \"#utility.yul\":6866:6872   */\n              dup3\n                /* \"#utility.yul\":6844:6873   */\n              tag_132\n              jump\t// in\n            tag_231:\n                /* \"#utility.yul\":6836:6873   */\n              swap1\n              pop\n                /* \"#utility.yul\":6928:6932   */\n              0x20\n                /* \"#utility.yul\":6922:6926   */\n              dup2\n                /* \"#utility.yul\":6918:6933   */\n              add\n                /* \"#utility.yul\":6910:6933   */\n              swap1\n              pop\n                /* \"#utility.yul\":6632:6940   */\n              swap2\n              swap1\n              pop\n              jump\t// out\n                /* \"#utility.yul\":6946:7100   */\n            tag_142:\n                /* \"#utility.yul\":7030:7036   */\n              dup3\n                /* \"#utility.yul\":7025:7028   */\n              dup2\n                /* \"#utility.yul\":7020:7023   */\n              dup4\n                /* \"#utility.yul\":7007:7037   */\n              calldatacopy\n                /* \"#utility.yul\":7092:7093   */\n              0x00\n                /* \"#utility.yul\":7083:7089   */\n              dup4\n                /* \"#utility.yul\":7078:7081   */\n              dup4\n                /* \"#utility.yul\":7074:7090   */\n              add\n                /* \"#utility.yul\":7067:7094   */\n              mstore\n                /* \"#utility.yul\":6946:7100   */\n              pop\n              pop\n              pop\n              jump\t// out\n                /* \"#utility.yul\":7106:7518   */\n            tag_143:\n                /* \"#utility.yul\":7184:7189   */\n              0x00\n                /* \"#utility.yul\":7209:7275   */\n              tag_234\n                /* \"#utility.yul\":7225:7274   */\n              tag_235\n                /* \"#utility.yul\":7267:7273   */\n              dup5\n                /* \"#utility.yul\":7225:7274   */\n              tag_141\n              jump\t// in\n            tag_235:\n                /* \"#utility.yul\":7209:7275   */\n              tag_140\n              jump\t// in\n            tag_234:\n                /* \"#utility.yul\":7200:7275   */\n              swap1\n              pop\n                /* \"#utility.yul\":7298:7304   */\n              dup3\n                /* \"#utility.yul\":7291:7296   */\n              dup2\n                /* \"#utility.yul\":7284:7305   */\n              mstore\n                /* \"#utility.yul\":7336:7340   */\n              0x20\n                /* \"#utility.yul\":7329:7334   */\n              dup2\n                /* \"#utility.yul\":7325:7341   */\n              add\n                /* \"#utility.yul\":7374:7377   */\n              dup5\n                /* \"#utility.yul\":7365:7371   */\n              dup5\n                /* \"#utility.yul\":7360:7363   */\n              dup5\n                /* \"#utility.yul\":7356:7372   */\n              add\n                /* \"#utility.yul\":7353:7378   */\n              gt\n                /* \"#utility.yul\":7350:7462   */\n              iszero\n              tag_236\n              jumpi\n                /* \"#utility.yul\":7381:7460   */\n              tag_237\n              tag_137\n              jump\t// in\n            tag_237:\n                /* \"#utility.yul\":7350:7462   */\n            tag_236:\n                /* \"#utility.yul\":7471:7512   */\n              tag_238\n                /* \"#utility.yul\":7505:7511   */\n              dup5\n                /* \"#utility.yul\":7500:7503   */\n              dup3\n                /* \"#utility.yul\":7495:7498   */\n              dup6\n                /* \"#utility.yul\":7471:7512   */\n              tag_142\n              jump\t// in\n            tag_238:\n                /* \"#utility.yul\":7190:7518   */\n              pop\n                /* \"#utility.yul\":7106:7518   */\n              swap4\n              swap3\n              pop\n              pop\n              pop\n              jump\t// out\n                /* \"#utility.yul\":7538:7878   */\n            tag_144:\n                /* \"#utility.yul\":7594:7599   */\n              0x00\n                /* \"#utility.yul\":7643:7646   */\n              dup3\n                /* \"#utility.yul\":7636:7640   */\n              0x1f\n                /* \"#utility.yul\":7628:7634   */\n              dup4\n                /* \"#utility.yul\":7624:7641   */\n              add\n                /* \"#utility.yul\":7620:7647   */\n              slt\n                /* \"#utility.yul\":7610:7732   */\n              tag_240\n              jumpi\n                /* \"#utility.yul\":7651:7730   */\n              tag_241\n              tag_136\n              jump\t// in\n            tag_241:\n                /* \"#utility.yul\":7610:7732   */\n            tag_240:\n                /* \"#utility.yul\":7768:7774   */\n              dup2\n                /* \"#utility.yul\":7755:7775   */\n              calldataload\n                /* \"#utility.yul\":7793:7872   */\n              tag_242\n                /* \"#utility.yul\":7868:7871   */\n              dup5\n                /* \"#utility.yul\":7860:7866   */\n              dup3\n                /* \"#utility.yul\":7853:7857   */\n              0x20\n                /* \"#utility.yul\":7845:7851   */\n              dup7\n                /* \"#utility.yul\":7841:7858   */\n              add\n                /* \"#utility.yul\":7793:7872   */\n              tag_143\n              jump\t// in\n            tag_242:\n                /* \"#utility.yul\":7784:7872   */\n              swap2\n              pop\n                /* \"#utility.yul\":7600:7878   */\n              pop\n                /* \"#utility.yul\":7538:7878   */\n              swap3\n              swap2\n              pop\n              pop\n              jump\t// out\n                /* \"#utility.yul\":7884:8022   */\n            tag_145:\n                /* \"#utility.yul\":7965:7997   */\n              tag_244\n                /* \"#utility.yul\":7991:7996   */\n              dup2\n                /* \"#utility.yul\":7965:7997   */\n              tag_134\n              jump\t// in\n            tag_244:\n                /* \"#utility.yul\":7958:7963   */\n              dup2\n                /* \"#utility.yul\":7955:7998   */\n              eq\n                /* \"#utility.yul\":7945:8016   */\n              tag_245\n              jumpi\n                /* \"#utility.yul\":8012:8013   */\n              0x00\n                /* \"#utility.yul\":8009:8010   */\n              dup1\n                /* \"#utility.yul\":8002:8014   */\n              revert\n                /* \"#utility.yul\":7945:8016   */\n            tag_245:\n                /* \"#utility.yul\":7884:8022   */\n              pop\n              jump\t// out\n                /* \"#utility.yul\":8028:8183   */\n            tag_146:\n                /* \"#utility.yul\":8082:8087   */\n              0x00\n                /* \"#utility.yul\":8120:8126   */\n              dup2\n                /* \"#utility.yul\":8107:8127   */\n              calldataload\n                /* \"#utility.yul\":8098:8127   */\n              swap1\n              pop\n                /* \"#utility.yul\":8136:8177   */\n              tag_247\n                /* \"#utility.yul\":8171:8176   */\n              dup2\n                /* \"#utility.yul\":8136:8177   */\n              tag_145\n              jump\t// in\n            tag_247:\n                /* \"#utility.yul\":8028:8183   */\n              swap3\n              swap2\n              pop\n              pop\n              jump\t// out\n                /* \"#utility.yul\":8189:9004   */\n            tag_49:\n                /* \"#utility.yul\":8284:8290   */\n              0x00\n                /* \"#utility.yul\":8292:8298   */\n              dup1\n                /* \"#utility.yul\":8300:8306   */\n              0x00\n                /* \"#utility.yul\":8349:8351   */\n              0x60\n                /* \"#utility.yul\":8337:8346   */\n              dup5\n                /* \"#utility.yul\":8328:8335   */\n              dup7\n                /* \"#utility.yul\":8324:8347   */\n              sub\n                /* \"#utility.yul\":8320:8352   */\n              slt\n                /* \"#utility.yul\":8317:8436   */\n              iszero\n              tag_249\n              jumpi\n                /* \"#utility.yul\":8355:8434   */\n              tag_250\n              tag_116\n              jump\t// in\n            tag_250:\n                /* \"#utility.yul\":8317:8436   */\n            tag_249:\n                /* \"#utility.yul\":8503:8504   */\n              0x00\n                /* \"#utility.yul\":8492:8501   */\n              dup5\n                /* \"#utility.yul\":8488:8505   */\n              add\n                /* \"#utility.yul\":8475:8506   */\n              calldataload\n                /* \"#utility.yul\":8533:8551   */\n              0xffffffffffffffff\n                /* \"#utility.yul\":8525:8531   */\n              dup2\n                /* \"#utility.yul\":8522:8552   */\n              gt\n                /* \"#utility.yul\":8519:8636   */\n              iszero\n              tag_251\n              jumpi\n                /* \"#utility.yul\":8555:8634   */\n              tag_252\n              tag_117\n              jump\t// in\n            tag_252:\n                /* \"#utility.yul\":8519:8636   */\n            tag_251:\n                /* \"#utility.yul\":8660:8723   */\n              tag_253\n                /* \"#utility.yul\":8715:8722   */\n              dup7\n                /* \"#utility.yul\":8706:8712   */\n              dup3\n                /* \"#utility.yul\":8695:8704   */\n              dup8\n                /* \"#utility.yul\":8691:8713   */\n              add\n                /* \"#utility.yul\":8660:8723   */\n              tag_144\n              jump\t// in\n            tag_253:\n                /* \"#utility.yul\":8650:8723   */\n              swap4\n              pop\n                /* \"#utility.yul\":8446:8733   */\n              pop\n                /* \"#utility.yul\":8772:8774   */\n              0x20\n                /* \"#utility.yul\":8798:8851   */\n              tag_254\n                /* \"#utility.yul\":8843:8850   */\n              dup7\n                /* \"#utility.yul\":8834:8840   */\n              dup3\n                /* \"#utility.yul\":8823:8832   */\n              dup8\n                /* \"#utility.yul\":8819:8841   */\n              add\n                /* \"#utility.yul\":8798:8851   */\n              tag_120\n              jump\t// in\n            tag_254:\n                /* \"#utility.yul\":8788:8851   */\n              swap3\n              pop\n                /* \"#utility.yul\":8743:8861   */\n              pop\n                /* \"#utility.yul\":8900:8902   */\n              0x40\n                /* \"#utility.yul\":8926:8987   */\n              tag_255\n                /* \"#utility.yul\":8979:8986   */\n              dup7\n                /* \"#utility.yul\":8970:8976   */\n              dup3\n                /* \"#utility.yul\":8959:8968   */\n              dup8\n                /* \"#utility.yul\":8955:8977   */\n              add\n                /* \"#utility.yul\":8926:8987   */\n              tag_146\n              jump\t// in\n            tag_255:\n                /* \"#utility.yul\":8916:8987   */\n              swap2\n              pop\n                /* \"#utility.yul\":8871:8997   */\n              pop\n                /* \"#utility.yul\":8189:9004   */\n              swap3\n              pop\n              swap3\n              pop\n              swap3\n              jump\t// out\n                /* \"#utility.yul\":9010:9190   */\n            tag_70:\n                /* \"#utility.yul\":9058:9135   */\n              0x4e487b7100000000000000000000000000000000000000000000000000000000\n                /* \"#utility.yul\":9055:9056   */\n              0x00\n                /* \"#utility.yul\":9048:9136   */\n              mstore\n                /* \"#utility.yul\":9155:9159   */\n              0x32\n                /* \"#utility.yul\":9152:9153   */\n              0x04\n                /* \"#utility.yul\":9145:9160   */\n              mstore\n                /* \"#utility.yul\":9179:9183   */\n              0x24\n                /* \"#utility.yul\":9176:9177   */\n              0x00\n                /* \"#utility.yul\":9169:9184   */\n              revert\n                /* \"#utility.yul\":9196:9376   */\n            tag_147:\n                /* \"#utility.yul\":9244:9321   */\n              0x4e487b7100000000000000000000000000000000000000000000000000000000\n                /* \"#utility.yul\":9241:9242   */\n              0x00\n                /* \"#utility.yul\":9234:9322   */\n              mstore\n                /* \"#utility.yul\":9341:9345   */\n              0x12\n                /* \"#utility.yul\":9338:9339   */\n              0x04\n                /* \"#utility.yul\":9331:9346   */\n              mstore\n                /* \"#utility.yul\":9365:9369   */\n              0x24\n                /* \"#utility.yul\":9362:9363   */\n              0x00\n                /* \"#utility.yul\":9355:9370   */\n              revert\n                /* \"#utility.yul\":9382:9562   */\n            tag_148:\n                /* \"#utility.yul\":9430:9507   */\n              0x4e487b7100000000000000000000000000000000000000000000000000000000\n                /* \"#utility.yul\":9427:9428   */\n              0x00\n                /* \"#utility.yul\":9420:9508   */\n              mstore\n                /* \"#utility.yul\":9527:9531   */\n              0x11\n                /* \"#utility.yul\":9524:9525   */\n              0x04\n                /* \"#utility.yul\":9517:9532   */\n              mstore\n                /* \"#utility.yul\":9551:9555   */\n              0x24\n                /* \"#utility.yul\":9548:9549   */\n              0x00\n                /* \"#utility.yul\":9541:9556   */\n              revert\n                /* \"#utility.yul\":9568:9753   */\n            tag_74:\n                /* \"#utility.yul\":9608:9609   */\n              0x00\n                /* \"#utility.yul\":9625:9645   */\n              tag_260\n                /* \"#utility.yul\":9643:9644   */\n              dup3\n                /* \"#utility.yul\":9625:9645   */\n              tag_118\n              jump\t// in\n            tag_260:\n                /* \"#utility.yul\":9620:9645   */\n              swap2\n              pop\n                /* \"#utility.yul\":9659:9679   */\n              tag_261\n                /* \"#utility.yul\":9677:9678   */\n              dup4\n                /* \"#utility.yul\":9659:9679   */\n              tag_118\n              jump\t// in\n            tag_261:\n                /* \"#utility.yul\":9654:9679   */\n              swap3\n              pop\n                /* \"#utility.yul\":9698:9699   */\n              dup3\n                /* \"#utility.yul\":9688:9723   */\n              tag_262\n              jumpi\n                /* \"#utility.yul\":9703:9721   */\n              tag_263\n              tag_147\n              jump\t// in\n            tag_263:\n                /* \"#utility.yul\":9688:9723   */\n            tag_262:\n                /* \"#utility.yul\":9745:9746   */\n              dup3\n                /* \"#utility.yul\":9742:9743   */\n              dup3\n                /* \"#utility.yul\":9738:9747   */\n              div\n                /* \"#utility.yul\":9733:9747   */\n              swap1\n              pop\n                /* \"#utility.yul\":9568:9753   */\n              swap3\n              swap2\n              pop\n              pop\n              jump\t// out\n                /* \"#utility.yul\":9759:9939   */\n            tag_149:\n                /* \"#utility.yul\":9807:9884   */\n              0x4e487b7100000000000000000000000000000000000000000000000000000000\n                /* \"#utility.yul\":9804:9805   */\n              0x00\n                /* \"#utility.yul\":9797:9885   */\n              mstore\n                /* \"#utility.yul\":9904:9908   */\n              0x22\n                /* \"#utility.yul\":9901:9902   */\n              0x04\n                /* \"#utility.yul\":9894:9909   */\n              mstore\n                /* \"#utility.yul\":9928:9932   */\n              0x24\n                /* \"#utility.yul\":9925:9926   */\n              0x00\n                /* \"#utility.yul\":9918:9933   */\n              revert\n                /* \"#utility.yul\":9945:10265   */\n            tag_83:\n                /* \"#utility.yul\":9989:9995   */\n              0x00\n                /* \"#utility.yul\":10026:10027   */\n              0x02\n                /* \"#utility.yul\":10020:10024   */\n              dup3\n                /* \"#utility.yul\":10016:10028   */\n              div\n                /* \"#utility.yul\":10006:10028   */\n              swap1\n              pop\n                /* \"#utility.yul\":10073:10074   */\n              0x01\n                /* \"#utility.yul\":10067:10071   */\n              dup3\n                /* \"#utility.yul\":10063:10075   */\n              and\n                /* \"#utility.yul\":10094:10112   */\n              dup1\n                /* \"#utility.yul\":10084:10165   */\n              tag_266\n              jumpi\n                /* \"#utility.yul\":10150:10154   */\n              0x7f\n                /* \"#utility.yul\":10142:10148   */\n              dup3\n                /* \"#utility.yul\":10138:10155   */\n              and\n                /* \"#utility.yul\":10128:10155   */\n              swap2\n              pop\n                /* \"#utility.yul\":10084:10165   */\n            tag_266:\n                /* \"#utility.yul\":10212:10214   */\n              0x20\n                /* \"#utility.yul\":10204:10210   */\n              dup3\n                /* \"#utility.yul\":10201:10215   */\n              lt\n                /* \"#utility.yul\":10181:10199   */\n              dup2\n                /* \"#utility.yul\":10178:10216   */\n              eq\n                /* \"#utility.yul\":10175:10259   */\n              iszero\n              tag_267\n              jumpi\n                /* \"#utility.yul\":10231:10249   */\n              tag_268\n              tag_149\n              jump\t// in\n            tag_268:\n                /* \"#utility.yul\":10175:10259   */\n            tag_267:\n                /* \"#utility.yul\":9996:10265   */\n              pop\n                /* \"#utility.yul\":9945:10265   */\n              swap2\n              swap1\n              pop\n              jump\t// out\n                /* \"#utility.yul\":10271:10504   */\n            tag_97:\n                /* \"#utility.yul\":10310:10313   */\n              0x00\n                /* \"#utility.yul\":10333:10357   */\n              tag_270\n                /* \"#utility.yul\":10351:10356   */\n              dup3\n                /* \"#utility.yul\":10333:10357   */\n              tag_118\n              jump\t// in\n            tag_270:\n                /* \"#utility.yul\":10324:10357   */\n              swap2\n              pop\n                /* \"#utility.yul\":10379:10445   */\n              0xffffffffffffffffffffffffffffffffffffffffffffffffffffffffffffffff\n                /* \"#utility.yul\":10372:10377   */\n              dup3\n                /* \"#utility.yul\":10369:10446   */\n              eq\n                /* \"#utility.yul\":10366:10469   */\n              iszero\n              tag_271\n              jumpi\n                /* \"#utility.yul\":10449:10467   */\n              tag_272\n              tag_148\n              jump\t// in\n            tag_272:\n                /* \"#utility.yul\":10366:10469   */\n            tag_271:\n                /* \"#utility.yul\":10496:10497   */\n              0x01\n                /* \"#utility.yul\":10489:10494   */\n              dup3\n                /* \"#utility.yul\":10485:10498   */\n              add\n                /* \"#utility.yul\":10478:10498   */\n              swap1\n              pop\n                /* \"#utility.yul\":10271:10504   */\n              swap2\n              swap1\n              pop\n              jump\t// out\n\n            auxdata: 0xa2646970667358221220eb0f53e43278ef967ac4d0d1b8693e95b5263abaff978e85f09b72e0e48dd55764736f6c634300080b0033\n        }\n    }\n\n    auxdata: 0xa26469706673582212202ba23d535058c51f9d6cef881a232530670f2c01cac6de35e3ce94b387c4d99864736f6c634300080b0033\n}\n",
    "bytecode": {
      "linkReferences": {},
      "object": "608060405234801561001057600080fd5b50611501806100206000396000f3fe608060405234801561001057600080fd5b50600436106100415760003560e01c8063339d50a514610046578063a3303a7514610076578063a950fbc514610092575b600080fd5b610060600480360381019061005b9190610266565b6100b0565b60405161006d91906102d4565b60405180910390f35b610090600480360381019061008b9190610266565b6100ef565b005b61009a610190565b6040516100a791906103ad565b60405180910390f35b600081815481106100c057600080fd5b906000526020600020016000915054906101000a900473ffffffffffffffffffffffffffffffffffffffff1681565b600081336040516100ff9061021e565b61010a9291906103de565b604051809103906000f080158015610126573d6000803e3d6000fd5b5090506000819080600181540180825580915050600190039060005260206000200160009091909190916101000a81548173ffffffffffffffffffffffffffffffffffffffff021916908373ffffffffffffffffffffffffffffffffffffffff1602179055505050565b6060600080548060200260200160405190810160405280929190818152602001828054801561021457602002820191906000526020600020905b8160009054906101000a900473ffffffffffffffffffffffffffffffffffffffff1673ffffffffffffffffffffffffffffffffffffffff16815260200190600101908083116101ca575b5050505050905090565b6110c48061040883390190565b600080fd5b6000819050919050565b61024381610230565b811461024e57600080fd5b50565b6000813590506102608161023a565b92915050565b60006020828403121561027c5761027b61022b565b5b600061028a84828501610251565b91505092915050565b600073ffffffffffffffffffffffffffffffffffffffff82169050919050565b60006102be82610293565b9050919050565b6102ce816102b3565b82525050565b60006020820190506102e960008301846102c5565b92915050565b600081519050919050565b600082825260208201905092915050565b6000819050602082019050919050565b610324816102b3565b82525050565b6000610336838361031b565b60208301905092915050565b6000602082019050919050565b600061035a826102ef565b61036481856102fa565b935061036f8361030b565b8060005b838110156103a0578151610387888261032a565b975061039283610342565b925050600181019050610373565b5085935050505092915050565b600060208201905081810360008301526103c7818461034f565b905092915050565b6103d881610230565b82525050565b60006040820190506103f360008301856103cf565b61040060208301846102c5565b939250505056fe608060405260006004553480156200001657600080fd5b50604051620010c4380380620010c483398181016040528101906200003c919062000131565b80600160006101000a81548173ffffffffffffffffffffffffffffffffffffffff021916908373ffffffffffffffffffffffffffffffffffffffff16021790555081600281905550505062000178565b600080fd5b6000819050919050565b620000a68162000091565b8114620000b257600080fd5b50565b600081519050620000c6816200009b565b92915050565b600073ffffffffffffffffffffffffffffffffffffffff82169050919050565b6000620000f982620000cc565b9050919050565b6200010b81620000ec565b81146200011757600080fd5b50565b6000815190506200012b8162000100565b92915050565b600080604083850312156200014b576200014a6200008c565b5b60006200015b85828601620000b5565b92505060206200016e858286016200011a565b9150509250929050565b610f3c80620001886000396000f3fe60806040526004361061009c5760003560e01c806381d12c581161006457806381d12c581461018c5780638a9cfd55146101cd5780638f03850b146101e9578063aaffadf314610214578063d7bb99ba1461023f578063d7d1bbdb146102495761009c565b806303441006146100a15780630c611f24146100ca5780631f6d4942146100f95780633410452a14610136578063481c6a7514610161575b600080fd5b3480156100ad57600080fd5b506100c860048036038101906100c39190610925565b610272565b005b3480156100d657600080fd5b506100df6103bb565b6040516100f09594939291906109a2565b60405180910390f35b34801561010557600080fd5b50610120600480360381019061011b9190610a21565b610404565b60405161012d9190610a69565b60405180910390f35b34801561014257600080fd5b5061014b610424565b6040516101589190610a84565b60405180910390f35b34801561016d57600080fd5b50610176610430565b6040516101839190610a9f565b60405180910390f35b34801561019857600080fd5b506101b360048036038101906101ae9190610925565b610456565b6040516101c4959493929190610b74565b60405180910390f35b6101e760048036038101906101e29190610d2f565b610551565b005b3480156101f557600080fd5b506101fe610660565b60405161020b9190610a84565b60405180910390f35b34801561022057600080fd5b50610229610666565b6040516102369190610a84565b60405180910390f35b61024761066c565b005b34801561025557600080fd5b50610270600480360381019061026b9190610925565b6106ec565b005b600160009054906101000a900473ffffffffffffffffffffffffffffffffffffffff1673ffffffffffffffffffffffffffffffffffffffff163373ffffffffffffffffffffffffffffffffffffffff16146102cc57600080fd5b60008082815481106102e1576102e0610d9e565b5b906000526020600020906005020190508060020160149054906101000a900460ff161561030d57600080fd5b600260045461031c9190610e2b565b81600301541161032b57600080fd5b8060020160009054906101000a900473ffffffffffffffffffffffffffffffffffffffff1673ffffffffffffffffffffffffffffffffffffffff166108fc82600101549081150290604051600060405180830381858888f19350505050158015610399573d6000803e3d6000fd5b5060018160020160146101000a81548160ff0219169083151502179055505050565b600080600080600060025447600080549050600454600160009054906101000a900473ffffffffffffffffffffffffffffffffffffffff16945094509450945094509091929394565b60036020528060005260406000206000915054906101000a900460ff1681565b60008080549050905090565b600160009054906101000a900473ffffffffffffffffffffffffffffffffffffffff1681565b6000818154811061046657600080fd5b906000526020600020906005020160009150905080600001805461048990610e8b565b80601f01602080910402602001604051908101604052809291908181526020018280546104b590610e8b565b80156105025780601f106104d757610100808354040283529160200191610502565b820191906000526020600020905b8154815290600101906020018083116104e557829003601f168201915b5050505050908060010154908060020160009054906101000a900473ffffffffffffffffffffffffffffffffffffffff16908060020160149054906101000a900460ff16908060030154905085565b600160009054906101000a900473ffffffffffffffffffffffffffffffffffffffff1673ffffffffffffffffffffffffffffffffffffffff163373ffffffffffffffffffffffffffffffffffffffff16146105ab57600080fd5b6000806001816001815401808255809150500390600052602060002090600502019050838160000190805190602001906105e6929190610838565b50828160010181905550818160020160006101000a81548173ffffffffffffffffffffffffffffffffffffffff021916908373ffffffffffffffffffffffffffffffffffffffff16021790555060008160020160146101000a81548160ff0219169083151502179055506000816003018190555050505050565b60045481565b60025481565b600254341161067a57600080fd5b6001600360003373ffffffffffffffffffffffffffffffffffffffff1673ffffffffffffffffffffffffffffffffffffffff16815260200190815260200160002060006101000a81548160ff021916908315150217905550600460008154809291906106e590610ebd565b9190505550565b600080828154811061070157610700610d9e565b5b90600052602060002090600502019050600360003373ffffffffffffffffffffffffffffffffffffffff1673ffffffffffffffffffffffffffffffffffffffff16815260200190815260200160002060009054906101000a900460ff1661076757600080fd5b8060040160003373ffffffffffffffffffffffffffffffffffffffff1673ffffffffffffffffffffffffffffffffffffffff16815260200190815260200160002060009054906101000a900460ff16156107c057600080fd5b60018160040160003373ffffffffffffffffffffffffffffffffffffffff1673ffffffffffffffffffffffffffffffffffffffff16815260200190815260200160002060006101000a81548160ff02191690831515021790555080600301600081548092919061082f90610ebd565b91905055505050565b82805461084490610e8b565b90600052602060002090601f01602090048101928261086657600085556108ad565b82601f1061087f57805160ff19168380011785556108ad565b828001600101855582156108ad579182015b828111156108ac578251825591602001919060010190610891565b5b5090506108ba91906108be565b5090565b5b808211156108d75760008160009055506001016108bf565b5090565b6000604051905090565b600080fd5b600080fd5b6000819050919050565b610902816108ef565b811461090d57600080fd5b50565b60008135905061091f816108f9565b92915050565b60006020828403121561093b5761093a6108e5565b5b600061094984828501610910565b91505092915050565b61095b816108ef565b82525050565b600073ffffffffffffffffffffffffffffffffffffffff82169050919050565b600061098c82610961565b9050919050565b61099c81610981565b82525050565b600060a0820190506109b76000830188610952565b6109c46020830187610952565b6109d16040830186610952565b6109de6060830185610952565b6109eb6080830184610993565b9695505050505050565b6109fe81610981565b8114610a0957600080fd5b50565b600081359050610a1b816109f5565b92915050565b600060208284031215610a3757610a366108e5565b5b6000610a4584828501610a0c565b91505092915050565b60008115159050919050565b610a6381610a4e565b82525050565b6000602082019050610a7e6000830184610a5a565b92915050565b6000602082019050610a996000830184610952565b92915050565b6000602082019050610ab46000830184610993565b92915050565b600081519050919050565b600082825260208201905092915050565b60005b83811015610af4578082015181840152602081019050610ad9565b83811115610b03576000848401525b50505050565b6000601f19601f8301169050919050565b6000610b2582610aba565b610b2f8185610ac5565b9350610b3f818560208601610ad6565b610b4881610b09565b840191505092915050565b6000610b5e82610961565b9050919050565b610b6e81610b53565b82525050565b600060a0820190508181036000830152610b8e8188610b1a565b9050610b9d6020830187610952565b610baa6040830186610b65565b610bb76060830185610a5a565b610bc46080830184610952565b9695505050505050565b600080fd5b600080fd5b7f4e487b7100000000000000000000000000000000000000000000000000000000600052604160045260246000fd5b610c1082610b09565b810181811067ffffffffffffffff82111715610c2f57610c2e610bd8565b5b80604052505050565b6000610c426108db565b9050610c4e8282610c07565b919050565b600067ffffffffffffffff821115610c6e57610c6d610bd8565b5b610c7782610b09565b9050602081019050919050565b82818337600083830152505050565b6000610ca6610ca184610c53565b610c38565b905082815260208101848484011115610cc257610cc1610bd3565b5b610ccd848285610c84565b509392505050565b600082601f830112610cea57610ce9610bce565b5b8135610cfa848260208601610c93565b91505092915050565b610d0c81610b53565b8114610d1757600080fd5b50565b600081359050610d2981610d03565b92915050565b600080600060608486031215610d4857610d476108e5565b5b600084013567ffffffffffffffff811115610d6657610d656108ea565b5b610d7286828701610cd5565b9350506020610d8386828701610910565b9250506040610d9486828701610d1a565b9150509250925092565b7f4e487b7100000000000000000000000000000000000000000000000000000000600052603260045260246000fd5b7f4e487b7100000000000000000000000000000000000000000000000000000000600052601260045260246000fd5b7f4e487b7100000000000000000000000000000000000000000000000000000000600052601160045260246000fd5b6000610e36826108ef565b9150610e41836108ef565b925082610e5157610e50610dcd565b5b828204905092915050565b7f4e487b7100000000000000000000000000000000000000000000000000000000600052602260045260246000fd5b60006002820490506001821680610ea357607f821691505b60208210811415610eb757610eb6610e5c565b5b50919050565b6000610ec8826108ef565b91507fffffffffffffffffffffffffffffffffffffffffffffffffffffffffffffffff821415610efb57610efa610dfc565b5b60018201905091905056fea2646970667358221220eb0f53e43278ef967ac4d0d1b8693e95b5263abaff978e85f09b72e0e48dd55764736f6c634300080b0033a26469706673582212202ba23d535058c51f9d6cef881a232530670f2c01cac6de35e3ce94b387c4d99864736f6c634300080b0033",
      "opcodes": "PUSH1 0x80 PUSH1 0x40 MSTORE CALLVALUE DUP1 ISZERO PUSH2 0x10 JUMPI PUSH1 0x0 DUP1 REVERT JUMPDEST POP PUSH2 0x1501 DUP1 PUSH2 0x20 PUSH1 0x0 CODECOPY PUSH1 0x0 RETURN INVALID PUSH1 0x80 PUSH1 0x40 MSTORE CALLVALUE DUP1 ISZERO PUSH2 0x10 JUMPI PUSH1 0x0 DUP1 REVERT JUMPDEST POP PUSH1 0x4 CALLDATASIZE LT PUSH2 0x41 JUMPI PUSH1 0x0 CALLDATALOAD PUSH1 0xE0 SHR DUP1 PUSH4 0x339D50A5 EQ PUSH2 0x46 JUMPI DUP1 PUSH4 0xA3303A75 EQ PUSH2 0x76 JUMPI DUP1 PUSH4 0xA950FBC5 EQ PUSH2 0x92 JUMPI JUMPDEST PUSH1 0x0 DUP1 REVERT JUMPDEST PUSH2 0x60 PUSH1 0x4 DUP1 CALLDATASIZE SUB DUP2 ADD SWAP1 PUSH2 0x5B SWAP2 SWAP1 PUSH2 0x266 JUMP JUMPDEST PUSH2 0xB0 JUMP JUMPDEST PUSH1 0x40 MLOAD PUSH2 0x6D SWAP2 SWAP1 PUSH2 0x2D4 JUMP JUMPDEST PUSH1 0x40 MLOAD DUP1 SWAP2 SUB SWAP1 RETURN JUMPDEST PUSH2 0x90 PUSH1 0x4 DUP1 CALLDATASIZE SUB DUP2 ADD SWAP1 PUSH2 0x8B SWAP2 SWAP1 PUSH2 0x266 JUMP JUMPDEST PUSH2 0xEF JUMP JUMPDEST STOP JUMPDEST PUSH2 0x9A PUSH2 0x190 JUMP JUMPDEST PUSH1 0x40 MLOAD PUSH2 0xA7 SWAP2 SWAP1 PUSH2 0x3AD JUMP JUMPDEST PUSH1 0x40 MLOAD DUP1 SWAP2 SUB SWAP1 RETURN JUMPDEST PUSH1 0x0 DUP2 DUP2 SLOAD DUP2 LT PUSH2 0xC0 JUMPI PUSH1 0x0 DUP1 REVERT JUMPDEST SWAP1 PUSH1 0x0 MSTORE PUSH1 0x20 PUSH1 0x0 KECCAK256 ADD PUSH1 0x0 SWAP2 POP SLOAD SWAP1 PUSH2 0x100 EXP SWAP1 DIV PUSH20 0xFFFFFFFFFFFFFFFFFFFFFFFFFFFFFFFFFFFFFFFF AND DUP2 JUMP JUMPDEST PUSH1 0x0 DUP2 CALLER PUSH1 0x40 MLOAD PUSH2 0xFF SWAP1 PUSH2 0x21E JUMP JUMPDEST PUSH2 0x10A SWAP3 SWAP2 SWAP1 PUSH2 0x3DE JUMP JUMPDEST PUSH1 0x40 MLOAD DUP1 SWAP2 SUB SWAP1 PUSH1 0x0 CREATE DUP1 ISZERO DUP1 ISZERO PUSH2 0x126 JUMPI RETURNDATASIZE PUSH1 0x0 DUP1 RETURNDATACOPY RETURNDATASIZE PUSH1 0x0 REVERT JUMPDEST POP SWAP1 POP PUSH1 0x0 DUP2 SWAP1 DUP1 PUSH1 0x1 DUP2 SLOAD ADD DUP1 DUP3 SSTORE DUP1 SWAP2 POP POP PUSH1 0x1 SWAP1 SUB SWAP1 PUSH1 0x0 MSTORE PUSH1 0x20 PUSH1 0x0 KECCAK256 ADD PUSH1 0x0 SWAP1 SWAP2 SWAP1 SWAP2 SWAP1 SWAP2 PUSH2 0x100 EXP DUP2 SLOAD DUP2 PUSH20 0xFFFFFFFFFFFFFFFFFFFFFFFFFFFFFFFFFFFFFFFF MUL NOT AND SWAP1 DUP4 PUSH20 0xFFFFFFFFFFFFFFFFFFFFFFFFFFFFFFFFFFFFFFFF AND MUL OR SWAP1 SSTORE POP POP POP JUMP JUMPDEST PUSH1 0x60 PUSH1 0x0 DUP1 SLOAD DUP1 PUSH1 0x20 MUL PUSH1 0x20 ADD PUSH1 0x40 MLOAD SWAP1 DUP2 ADD PUSH1 0x40 MSTORE DUP1 SWAP3 SWAP2 SWAP1 DUP2 DUP2 MSTORE PUSH1 0x20 ADD DUP3 DUP1 SLOAD DUP1 ISZERO PUSH2 0x214 JUMPI PUSH1 0x20 MUL DUP3 ADD SWAP2 SWAP1 PUSH1 0x0 MSTORE PUSH1 0x20 PUSH1 0x0 KECCAK256 SWAP1 JUMPDEST DUP2 PUSH1 0x0 SWAP1 SLOAD SWAP1 PUSH2 0x100 EXP SWAP1 DIV PUSH20 0xFFFFFFFFFFFFFFFFFFFFFFFFFFFFFFFFFFFFFFFF AND PUSH20 0xFFFFFFFFFFFFFFFFFFFFFFFFFFFFFFFFFFFFFFFF AND DUP2 MSTORE PUSH1 0x20 ADD SWAP1 PUSH1 0x1 ADD SWAP1 DUP1 DUP4 GT PUSH2 0x1CA JUMPI JUMPDEST POP POP POP POP POP SWAP1 POP SWAP1 JUMP JUMPDEST PUSH2 0x10C4 DUP1 PUSH2 0x408 DUP4 CODECOPY ADD SWAP1 JUMP JUMPDEST PUSH1 0x0 DUP1 REVERT JUMPDEST PUSH1 0x0 DUP2 SWAP1 POP SWAP2 SWAP1 POP JUMP JUMPDEST PUSH2 0x243 DUP2 PUSH2 0x230 JUMP JUMPDEST DUP2 EQ PUSH2 0x24E JUMPI PUSH1 0x0 DUP1 REVERT JUMPDEST POP JUMP JUMPDEST PUSH1 0x0 DUP2 CALLDATALOAD SWAP1 POP PUSH2 0x260 DUP2 PUSH2 0x23A JUMP JUMPDEST SWAP3 SWAP2 POP POP JUMP JUMPDEST PUSH1 0x0 PUSH1 0x20 DUP3 DUP5 SUB SLT ISZERO PUSH2 0x27C JUMPI PUSH2 0x27B PUSH2 0x22B JUMP JUMPDEST JUMPDEST PUSH1 0x0 PUSH2 0x28A DUP5 DUP3 DUP6 ADD PUSH2 0x251 JUMP JUMPDEST SWAP2 POP POP SWAP3 SWAP2 POP POP JUMP JUMPDEST PUSH1 0x0 PUSH20 0xFFFFFFFFFFFFFFFFFFFFFFFFFFFFFFFFFFFFFFFF DUP3 AND SWAP1 POP SWAP2 SWAP1 POP JUMP JUMPDEST PUSH1 0x0 PUSH2 0x2BE DUP3 PUSH2 0x293 JUMP JUMPDEST SWAP1 POP SWAP2 SWAP1 POP JUMP JUMPDEST PUSH2 0x2CE DUP2 PUSH2 0x2B3 JUMP JUMPDEST DUP3 MSTORE POP POP JUMP JUMPDEST PUSH1 0x0 PUSH1 0x20 DUP3 ADD SWAP1 POP PUSH2 0x2E9 PUSH1 0x0 DUP4 ADD DUP5 PUSH2 0x2C5 JUMP JUMPDEST SWAP3 SWAP2 POP POP JUMP JUMPDEST PUSH1 0x0 DUP2 MLOAD SWAP1 POP SWAP2 SWAP1 POP JUMP JUMPDEST PUSH1 0x0 DUP3 DUP3 MSTORE PUSH1 0x20 DUP3 ADD SWAP1 POP SWAP3 SWAP2 POP POP JUMP JUMPDEST PUSH1 0x0 DUP2 SWAP1 POP PUSH1 0x20 DUP3 ADD SWAP1 POP SWAP2 SWAP1 POP JUMP JUMPDEST PUSH2 0x324 DUP2 PUSH2 0x2B3 JUMP JUMPDEST DUP3 MSTORE POP POP JUMP JUMPDEST PUSH1 0x0 PUSH2 0x336 DUP4 DUP4 PUSH2 0x31B JUMP JUMPDEST PUSH1 0x20 DUP4 ADD SWAP1 POP SWAP3 SWAP2 POP POP JUMP JUMPDEST PUSH1 0x0 PUSH1 0x20 DUP3 ADD SWAP1 POP SWAP2 SWAP1 POP JUMP JUMPDEST PUSH1 0x0 PUSH2 0x35A DUP3 PUSH2 0x2EF JUMP JUMPDEST PUSH2 0x364 DUP2 DUP6 PUSH2 0x2FA JUMP JUMPDEST SWAP4 POP PUSH2 0x36F DUP4 PUSH2 0x30B JUMP JUMPDEST DUP1 PUSH1 0x0 JUMPDEST DUP4 DUP2 LT ISZERO PUSH2 0x3A0 JUMPI DUP2 MLOAD PUSH2 0x387 DUP9 DUP3 PUSH2 0x32A JUMP JUMPDEST SWAP8 POP PUSH2 0x392 DUP4 PUSH2 0x342 JUMP JUMPDEST SWAP3 POP POP PUSH1 0x1 DUP2 ADD SWAP1 POP PUSH2 0x373 JUMP JUMPDEST POP DUP6 SWAP4 POP POP POP POP SWAP3 SWAP2 POP POP JUMP JUMPDEST PUSH1 0x0 PUSH1 0x20 DUP3 ADD SWAP1 POP DUP2 DUP2 SUB PUSH1 0x0 DUP4 ADD MSTORE PUSH2 0x3C7 DUP2 DUP5 PUSH2 0x34F JUMP JUMPDEST SWAP1 POP SWAP3 SWAP2 POP POP JUMP JUMPDEST PUSH2 0x3D8 DUP2 PUSH2 0x230 JUMP JUMPDEST DUP3 MSTORE POP POP JUMP JUMPDEST PUSH1 0x0 PUSH1 0x40 DUP3 ADD SWAP1 POP PUSH2 0x3F3 PUSH1 0x0 DUP4 ADD DUP6 PUSH2 0x3CF JUMP JUMPDEST PUSH2 0x400 PUSH1 0x20 DUP4 ADD DUP5 PUSH2 0x2C5 JUMP JUMPDEST SWAP4 SWAP3 POP POP POP JUMP INVALID PUSH1 0x80 PUSH1 0x40 MSTORE PUSH1 0x0 PUSH1 0x4 SSTORE CALLVALUE DUP1 ISZERO PUSH3 0x16 JUMPI PUSH1 0x0 DUP1 REVERT JUMPDEST POP PUSH1 0x40 MLOAD PUSH3 0x10C4 CODESIZE SUB DUP1 PUSH3 0x10C4 DUP4 CODECOPY DUP2 DUP2 ADD PUSH1 0x40 MSTORE DUP2 ADD SWAP1 PUSH3 0x3C SWAP2 SWAP1 PUSH3 0x131 JUMP JUMPDEST DUP1 PUSH1 0x1 PUSH1 0x0 PUSH2 0x100 EXP DUP2 SLOAD DUP2 PUSH20 0xFFFFFFFFFFFFFFFFFFFFFFFFFFFFFFFFFFFFFFFF MUL NOT AND SWAP1 DUP4 PUSH20 0xFFFFFFFFFFFFFFFFFFFFFFFFFFFFFFFFFFFFFFFF AND MUL OR SWAP1 SSTORE POP DUP2 PUSH1 0x2 DUP2 SWAP1 SSTORE POP POP POP PUSH3 0x178 JUMP JUMPDEST PUSH1 0x0 DUP1 REVERT JUMPDEST PUSH1 0x0 DUP2 SWAP1 POP SWAP2 SWAP1 POP JUMP JUMPDEST PUSH3 0xA6 DUP2 PUSH3 0x91 JUMP JUMPDEST DUP2 EQ PUSH3 0xB2 JUMPI PUSH1 0x0 DUP1 REVERT JUMPDEST POP JUMP JUMPDEST PUSH1 0x0 DUP2 MLOAD SWAP1 POP PUSH3 0xC6 DUP2 PUSH3 0x9B JUMP JUMPDEST SWAP3 SWAP2 POP POP JUMP JUMPDEST PUSH1 0x0 PUSH20 0xFFFFFFFFFFFFFFFFFFFFFFFFFFFFFFFFFFFFFFFF DUP3 AND SWAP1 POP SWAP2 SWAP1 POP JUMP JUMPDEST PUSH1 0x0 PUSH3 0xF9 DUP3 PUSH3 0xCC JUMP JUMPDEST SWAP1 POP SWAP2 SWAP1 POP JUMP JUMPDEST PUSH3 0x10B DUP2 PUSH3 0xEC JUMP JUMPDEST DUP2 EQ PUSH3 0x117 JUMPI PUSH1 0x0 DUP1 REVERT JUMPDEST POP JUMP JUMPDEST PUSH1 0x0 DUP2 MLOAD SWAP1 POP PUSH3 0x12B DUP2 PUSH3 0x100 JUMP JUMPDEST SWAP3 SWAP2 POP POP JUMP JUMPDEST PUSH1 0x0 DUP1 PUSH1 0x40 DUP4 DUP6 SUB SLT ISZERO PUSH3 0x14B JUMPI PUSH3 0x14A PUSH3 0x8C JUMP JUMPDEST JUMPDEST PUSH1 0x0 PUSH3 0x15B DUP6 DUP3 DUP7 ADD PUSH3 0xB5 JUMP JUMPDEST SWAP3 POP POP PUSH1 0x20 PUSH3 0x16E DUP6 DUP3 DUP7 ADD PUSH3 0x11A JUMP JUMPDEST SWAP2 POP POP SWAP3 POP SWAP3 SWAP1 POP JUMP JUMPDEST PUSH2 0xF3C DUP1 PUSH3 0x188 PUSH1 0x0 CODECOPY PUSH1 0x0 RETURN INVALID PUSH1 0x80 PUSH1 0x40 MSTORE PUSH1 0x4 CALLDATASIZE LT PUSH2 0x9C JUMPI PUSH1 0x0 CALLDATALOAD PUSH1 0xE0 SHR DUP1 PUSH4 0x81D12C58 GT PUSH2 0x64 JUMPI DUP1 PUSH4 0x81D12C58 EQ PUSH2 0x18C JUMPI DUP1 PUSH4 0x8A9CFD55 EQ PUSH2 0x1CD JUMPI DUP1 PUSH4 0x8F03850B EQ PUSH2 0x1E9 JUMPI DUP1 PUSH4 0xAAFFADF3 EQ PUSH2 0x214 JUMPI DUP1 PUSH4 0xD7BB99BA EQ PUSH2 0x23F JUMPI DUP1 PUSH4 0xD7D1BBDB EQ PUSH2 0x249 JUMPI PUSH2 0x9C JUMP JUMPDEST DUP1 PUSH4 0x3441006 EQ PUSH2 0xA1 JUMPI DUP1 PUSH4 0xC611F24 EQ PUSH2 0xCA JUMPI DUP1 PUSH4 0x1F6D4942 EQ PUSH2 0xF9 JUMPI DUP1 PUSH4 0x3410452A EQ PUSH2 0x136 JUMPI DUP1 PUSH4 0x481C6A75 EQ PUSH2 0x161 JUMPI JUMPDEST PUSH1 0x0 DUP1 REVERT JUMPDEST CALLVALUE DUP1 ISZERO PUSH2 0xAD JUMPI PUSH1 0x0 DUP1 REVERT JUMPDEST POP PUSH2 0xC8 PUSH1 0x4 DUP1 CALLDATASIZE SUB DUP2 ADD SWAP1 PUSH2 0xC3 SWAP2 SWAP1 PUSH2 0x925 JUMP JUMPDEST PUSH2 0x272 JUMP JUMPDEST STOP JUMPDEST CALLVALUE DUP1 ISZERO PUSH2 0xD6 JUMPI PUSH1 0x0 DUP1 REVERT JUMPDEST POP PUSH2 0xDF PUSH2 0x3BB JUMP JUMPDEST PUSH1 0x40 MLOAD PUSH2 0xF0 SWAP6 SWAP5 SWAP4 SWAP3 SWAP2 SWAP1 PUSH2 0x9A2 JUMP JUMPDEST PUSH1 0x40 MLOAD DUP1 SWAP2 SUB SWAP1 RETURN JUMPDEST CALLVALUE DUP1 ISZERO PUSH2 0x105 JUMPI PUSH1 0x0 DUP1 REVERT JUMPDEST POP PUSH2 0x120 PUSH1 0x4 DUP1 CALLDATASIZE SUB DUP2 ADD SWAP1 PUSH2 0x11B SWAP2 SWAP1 PUSH2 0xA21 JUMP JUMPDEST PUSH2 0x404 JUMP JUMPDEST PUSH1 0x40 MLOAD PUSH2 0x12D SWAP2 SWAP1 PUSH2 0xA69 JUMP JUMPDEST PUSH1 0x40 MLOAD DUP1 SWAP2 SUB SWAP1 RETURN JUMPDEST CALLVALUE DUP1 ISZERO PUSH2 0x142 JUMPI PUSH1 0x0 DUP1 REVERT JUMPDEST POP PUSH2 0x14B PUSH2 0x424 JUMP JUMPDEST PUSH1 0x40 MLOAD PUSH2 0x158 SWAP2 SWAP1 PUSH2 0xA84 JUMP JUMPDEST PUSH1 0x40 MLOAD DUP1 SWAP2 SUB SWAP1 RETURN JUMPDEST CALLVALUE DUP1 ISZERO PUSH2 0x16D JUMPI PUSH1 0x0 DUP1 REVERT JUMPDEST POP PUSH2 0x176 PUSH2 0x430 JUMP JUMPDEST PUSH1 0x40 MLOAD PUSH2 0x183 SWAP2 SWAP1 PUSH2 0xA9F JUMP JUMPDEST PUSH1 0x40 MLOAD DUP1 SWAP2 SUB SWAP1 RETURN JUMPDEST CALLVALUE DUP1 ISZERO PUSH2 0x198 JUMPI PUSH1 0x0 DUP1 REVERT JUMPDEST POP PUSH2 0x1B3 PUSH1 0x4 DUP1 CALLDATASIZE SUB DUP2 ADD SWAP1 PUSH2 0x1AE SWAP2 SWAP1 PUSH2 0x925 JUMP JUMPDEST PUSH2 0x456 JUMP JUMPDEST PUSH1 0x40 MLOAD PUSH2 0x1C4 SWAP6 SWAP5 SWAP4 SWAP3 SWAP2 SWAP1 PUSH2 0xB74 JUMP JUMPDEST PUSH1 0x40 MLOAD DUP1 SWAP2 SUB SWAP1 RETURN JUMPDEST PUSH2 0x1E7 PUSH1 0x4 DUP1 CALLDATASIZE SUB DUP2 ADD SWAP1 PUSH2 0x1E2 SWAP2 SWAP1 PUSH2 0xD2F JUMP JUMPDEST PUSH2 0x551 JUMP JUMPDEST STOP JUMPDEST CALLVALUE DUP1 ISZERO PUSH2 0x1F5 JUMPI PUSH1 0x0 DUP1 REVERT JUMPDEST POP PUSH2 0x1FE PUSH2 0x660 JUMP JUMPDEST PUSH1 0x40 MLOAD PUSH2 0x20B SWAP2 SWAP1 PUSH2 0xA84 JUMP JUMPDEST PUSH1 0x40 MLOAD DUP1 SWAP2 SUB SWAP1 RETURN JUMPDEST CALLVALUE DUP1 ISZERO PUSH2 0x220 JUMPI PUSH1 0x0 DUP1 REVERT JUMPDEST POP PUSH2 0x229 PUSH2 0x666 JUMP JUMPDEST PUSH1 0x40 MLOAD PUSH2 0x236 SWAP2 SWAP1 PUSH2 0xA84 JUMP JUMPDEST PUSH1 0x40 MLOAD DUP1 SWAP2 SUB SWAP1 RETURN JUMPDEST PUSH2 0x247 PUSH2 0x66C JUMP JUMPDEST STOP JUMPDEST CALLVALUE DUP1 ISZERO PUSH2 0x255 JUMPI PUSH1 0x0 DUP1 REVERT JUMPDEST POP PUSH2 0x270 PUSH1 0x4 DUP1 CALLDATASIZE SUB DUP2 ADD SWAP1 PUSH2 0x26B SWAP2 SWAP1 PUSH2 0x925 JUMP JUMPDEST PUSH2 0x6EC JUMP JUMPDEST STOP JUMPDEST PUSH1 0x1 PUSH1 0x0 SWAP1 SLOAD SWAP1 PUSH2 0x100 EXP SWAP1 DIV PUSH20 0xFFFFFFFFFFFFFFFFFFFFFFFFFFFFFFFFFFFFFFFF AND PUSH20 0xFFFFFFFFFFFFFFFFFFFFFFFFFFFFFFFFFFFFFFFF AND CALLER PUSH20 0xFFFFFFFFFFFFFFFFFFFFFFFFFFFFFFFFFFFFFFFF AND EQ PUSH2 0x2CC JUMPI PUSH1 0x0 DUP1 REVERT JUMPDEST PUSH1 0x0 DUP1 DUP3 DUP2 SLOAD DUP2 LT PUSH2 0x2E1 JUMPI PUSH2 0x2E0 PUSH2 0xD9E JUMP JUMPDEST JUMPDEST SWAP1 PUSH1 0x0 MSTORE PUSH1 0x20 PUSH1 0x0 KECCAK256 SWAP1 PUSH1 0x5 MUL ADD SWAP1 POP DUP1 PUSH1 0x2 ADD PUSH1 0x14 SWAP1 SLOAD SWAP1 PUSH2 0x100 EXP SWAP1 DIV PUSH1 0xFF AND ISZERO PUSH2 0x30D JUMPI PUSH1 0x0 DUP1 REVERT JUMPDEST PUSH1 0x2 PUSH1 0x4 SLOAD PUSH2 0x31C SWAP2 SWAP1 PUSH2 0xE2B JUMP JUMPDEST DUP2 PUSH1 0x3 ADD SLOAD GT PUSH2 0x32B JUMPI PUSH1 0x0 DUP1 REVERT JUMPDEST DUP1 PUSH1 0x2 ADD PUSH1 0x0 SWAP1 SLOAD SWAP1 PUSH2 0x100 EXP SWAP1 DIV PUSH20 0xFFFFFFFFFFFFFFFFFFFFFFFFFFFFFFFFFFFFFFFF AND PUSH20 0xFFFFFFFFFFFFFFFFFFFFFFFFFFFFFFFFFFFFFFFF AND PUSH2 0x8FC DUP3 PUSH1 0x1 ADD SLOAD SWAP1 DUP2 ISZERO MUL SWAP1 PUSH1 0x40 MLOAD PUSH1 0x0 PUSH1 0x40 MLOAD DUP1 DUP4 SUB DUP2 DUP6 DUP9 DUP9 CALL SWAP4 POP POP POP POP ISZERO DUP1 ISZERO PUSH2 0x399 JUMPI RETURNDATASIZE PUSH1 0x0 DUP1 RETURNDATACOPY RETURNDATASIZE PUSH1 0x0 REVERT JUMPDEST POP PUSH1 0x1 DUP2 PUSH1 0x2 ADD PUSH1 0x14 PUSH2 0x100 EXP DUP2 SLOAD DUP2 PUSH1 0xFF MUL NOT AND SWAP1 DUP4 ISZERO ISZERO MUL OR SWAP1 SSTORE POP POP POP JUMP JUMPDEST PUSH1 0x0 DUP1 PUSH1 0x0 DUP1 PUSH1 0x0 PUSH1 0x2 SLOAD SELFBALANCE PUSH1 0x0 DUP1 SLOAD SWAP1 POP PUSH1 0x4 SLOAD PUSH1 0x1 PUSH1 0x0 SWAP1 SLOAD SWAP1 PUSH2 0x100 EXP SWAP1 DIV PUSH20 0xFFFFFFFFFFFFFFFFFFFFFFFFFFFFFFFFFFFFFFFF AND SWAP5 POP SWAP5 POP SWAP5 POP SWAP5 POP SWAP5 POP SWAP1 SWAP2 SWAP3 SWAP4 SWAP5 JUMP JUMPDEST PUSH1 0x3 PUSH1 0x20 MSTORE DUP1 PUSH1 0x0 MSTORE PUSH1 0x40 PUSH1 0x0 KECCAK256 PUSH1 0x0 SWAP2 POP SLOAD SWAP1 PUSH2 0x100 EXP SWAP1 DIV PUSH1 0xFF AND DUP2 JUMP JUMPDEST PUSH1 0x0 DUP1 DUP1 SLOAD SWAP1 POP SWAP1 POP SWAP1 JUMP JUMPDEST PUSH1 0x1 PUSH1 0x0 SWAP1 SLOAD SWAP1 PUSH2 0x100 EXP SWAP1 DIV PUSH20 0xFFFFFFFFFFFFFFFFFFFFFFFFFFFFFFFFFFFFFFFF AND DUP2 JUMP JUMPDEST PUSH1 0x0 DUP2 DUP2 SLOAD DUP2 LT PUSH2 0x466 JUMPI PUSH1 0x0 DUP1 REVERT JUMPDEST SWAP1 PUSH1 0x0 MSTORE PUSH1 0x20 PUSH1 0x0 KECCAK256 SWAP1 PUSH1 0x5 MUL ADD PUSH1 0x0 SWAP2 POP SWAP1 POP DUP1 PUSH1 0x0 ADD DUP1 SLOAD PUSH2 0x489 SWAP1 PUSH2 0xE8B JUMP JUMPDEST DUP1 PUSH1 0x1F ADD PUSH1 0x20 DUP1 SWAP2 DIV MUL PUSH1 0x20 ADD PUSH1 0x40 MLOAD SWAP1 DUP2 ADD PUSH1 0x40 MSTORE DUP1 SWAP3 SWAP2 SWAP1 DUP2 DUP2 MSTORE PUSH1 0x20 ADD DUP3 DUP1 SLOAD PUSH2 0x4B5 SWAP1 PUSH2 0xE8B JUMP JUMPDEST DUP1 ISZERO PUSH2 0x502 JUMPI DUP1 PUSH1 0x1F LT PUSH2 0x4D7 JUMPI PUSH2 0x100 DUP1 DUP4 SLOAD DIV MUL DUP4 MSTORE SWAP2 PUSH1 0x20 ADD SWAP2 PUSH2 0x502 JUMP JUMPDEST DUP3 ADD SWAP2 SWAP1 PUSH1 0x0 MSTORE PUSH1 0x20 PUSH1 0x0 KECCAK256 SWAP1 JUMPDEST DUP2 SLOAD DUP2 MSTORE SWAP1 PUSH1 0x1 ADD SWAP1 PUSH1 0x20 ADD DUP1 DUP4 GT PUSH2 0x4E5 JUMPI DUP3 SWAP1 SUB PUSH1 0x1F AND DUP3 ADD SWAP2 JUMPDEST POP POP POP POP POP SWAP1 DUP1 PUSH1 0x1 ADD SLOAD SWAP1 DUP1 PUSH1 0x2 ADD PUSH1 0x0 SWAP1 SLOAD SWAP1 PUSH2 0x100 EXP SWAP1 DIV PUSH20 0xFFFFFFFFFFFFFFFFFFFFFFFFFFFFFFFFFFFFFFFF AND SWAP1 DUP1 PUSH1 0x2 ADD PUSH1 0x14 SWAP1 SLOAD SWAP1 PUSH2 0x100 EXP SWAP1 DIV PUSH1 0xFF AND SWAP1 DUP1 PUSH1 0x3 ADD SLOAD SWAP1 POP DUP6 JUMP JUMPDEST PUSH1 0x1 PUSH1 0x0 SWAP1 SLOAD SWAP1 PUSH2 0x100 EXP SWAP1 DIV PUSH20 0xFFFFFFFFFFFFFFFFFFFFFFFFFFFFFFFFFFFFFFFF AND PUSH20 0xFFFFFFFFFFFFFFFFFFFFFFFFFFFFFFFFFFFFFFFF AND CALLER PUSH20 0xFFFFFFFFFFFFFFFFFFFFFFFFFFFFFFFFFFFFFFFF AND EQ PUSH2 0x5AB JUMPI PUSH1 0x0 DUP1 REVERT JUMPDEST PUSH1 0x0 DUP1 PUSH1 0x1 DUP2 PUSH1 0x1 DUP2 SLOAD ADD DUP1 DUP3 SSTORE DUP1 SWAP2 POP POP SUB SWAP1 PUSH1 0x0 MSTORE PUSH1 0x20 PUSH1 0x0 KECCAK256 SWAP1 PUSH1 0x5 MUL ADD SWAP1 POP DUP4 DUP2 PUSH1 0x0 ADD SWAP1 DUP1 MLOAD SWAP1 PUSH1 0x20 ADD SWAP1 PUSH2 0x5E6 SWAP3 SWAP2 SWAP1 PUSH2 0x838 JUMP JUMPDEST POP DUP3 DUP2 PUSH1 0x1 ADD DUP2 SWAP1 SSTORE POP DUP2 DUP2 PUSH1 0x2 ADD PUSH1 0x0 PUSH2 0x100 EXP DUP2 SLOAD DUP2 PUSH20 0xFFFFFFFFFFFFFFFFFFFFFFFFFFFFFFFFFFFFFFFF MUL NOT AND SWAP1 DUP4 PUSH20 0xFFFFFFFFFFFFFFFFFFFFFFFFFFFFFFFFFFFFFFFF AND MUL OR SWAP1 SSTORE POP PUSH1 0x0 DUP2 PUSH1 0x2 ADD PUSH1 0x14 PUSH2 0x100 EXP DUP2 SLOAD DUP2 PUSH1 0xFF MUL NOT AND SWAP1 DUP4 ISZERO ISZERO MUL OR SWAP1 SSTORE POP PUSH1 0x0 DUP2 PUSH1 0x3 ADD DUP2 SWAP1 SSTORE POP POP POP POP POP JUMP JUMPDEST PUSH1 0x4 SLOAD DUP2 JUMP JUMPDEST PUSH1 0x2 SLOAD DUP2 JUMP JUMPDEST PUSH1 0x2 SLOAD CALLVALUE GT PUSH2 0x67A JUMPI PUSH1 0x0 DUP1 REVERT JUMPDEST PUSH1 0x1 PUSH1 0x3 PUSH1 0x0 CALLER PUSH20 0xFFFFFFFFFFFFFFFFFFFFFFFFFFFFFFFFFFFFFFFF AND PUSH20 0xFFFFFFFFFFFFFFFFFFFFFFFFFFFFFFFFFFFFFFFF AND DUP2 MSTORE PUSH1 0x20 ADD SWAP1 DUP2 MSTORE PUSH1 0x20 ADD PUSH1 0x0 KECCAK256 PUSH1 0x0 PUSH2 0x100 EXP DUP2 SLOAD DUP2 PUSH1 0xFF MUL NOT AND SWAP1 DUP4 ISZERO ISZERO MUL OR SWAP1 SSTORE POP PUSH1 0x4 PUSH1 0x0 DUP2 SLOAD DUP1 SWAP3 SWAP2 SWAP1 PUSH2 0x6E5 SWAP1 PUSH2 0xEBD JUMP JUMPDEST SWAP2 SWAP1 POP SSTORE POP JUMP JUMPDEST PUSH1 0x0 DUP1 DUP3 DUP2 SLOAD DUP2 LT PUSH2 0x701 JUMPI PUSH2 0x700 PUSH2 0xD9E JUMP JUMPDEST JUMPDEST SWAP1 PUSH1 0x0 MSTORE PUSH1 0x20 PUSH1 0x0 KECCAK256 SWAP1 PUSH1 0x5 MUL ADD SWAP1 POP PUSH1 0x3 PUSH1 0x0 CALLER PUSH20 0xFFFFFFFFFFFFFFFFFFFFFFFFFFFFFFFFFFFFFFFF AND PUSH20 0xFFFFFFFFFFFFFFFFFFFFFFFFFFFFFFFFFFFFFFFF AND DUP2 MSTORE PUSH1 0x20 ADD SWAP1 DUP2 MSTORE PUSH1 0x20 ADD PUSH1 0x0 KECCAK256 PUSH1 0x0 SWAP1 SLOAD SWAP1 PUSH2 0x100 EXP SWAP1 DIV PUSH1 0xFF AND PUSH2 0x767 JUMPI PUSH1 0x0 DUP1 REVERT JUMPDEST DUP1 PUSH1 0x4 ADD PUSH1 0x0 CALLER PUSH20 0xFFFFFFFFFFFFFFFFFFFFFFFFFFFFFFFFFFFFFFFF AND PUSH20 0xFFFFFFFFFFFFFFFFFFFFFFFFFFFFFFFFFFFFFFFF AND DUP2 MSTORE PUSH1 0x20 ADD SWAP1 DUP2 MSTORE PUSH1 0x20 ADD PUSH1 0x0 KECCAK256 PUSH1 0x0 SWAP1 SLOAD SWAP1 PUSH2 0x100 EXP SWAP1 DIV PUSH1 0xFF AND ISZERO PUSH2 0x7C0 JUMPI PUSH1 0x0 DUP1 REVERT JUMPDEST PUSH1 0x1 DUP2 PUSH1 0x4 ADD PUSH1 0x0 CALLER PUSH20 0xFFFFFFFFFFFFFFFFFFFFFFFFFFFFFFFFFFFFFFFF AND PUSH20 0xFFFFFFFFFFFFFFFFFFFFFFFFFFFFFFFFFFFFFFFF AND DUP2 MSTORE PUSH1 0x20 ADD SWAP1 DUP2 MSTORE PUSH1 0x20 ADD PUSH1 0x0 KECCAK256 PUSH1 0x0 PUSH2 0x100 EXP DUP2 SLOAD DUP2 PUSH1 0xFF MUL NOT AND SWAP1 DUP4 ISZERO ISZERO MUL OR SWAP1 SSTORE POP DUP1 PUSH1 0x3 ADD PUSH1 0x0 DUP2 SLOAD DUP1 SWAP3 SWAP2 SWAP1 PUSH2 0x82F SWAP1 PUSH2 0xEBD JUMP JUMPDEST SWAP2 SWAP1 POP SSTORE POP POP POP JUMP JUMPDEST DUP3 DUP1 SLOAD PUSH2 0x844 SWAP1 PUSH2 0xE8B JUMP JUMPDEST SWAP1 PUSH1 0x0 MSTORE PUSH1 0x20 PUSH1 0x0 KECCAK256 SWAP1 PUSH1 0x1F ADD PUSH1 0x20 SWAP1 DIV DUP2 ADD SWAP3 DUP3 PUSH2 0x866 JUMPI PUSH1 0x0 DUP6 SSTORE PUSH2 0x8AD JUMP JUMPDEST DUP3 PUSH1 0x1F LT PUSH2 0x87F JUMPI DUP1 MLOAD PUSH1 0xFF NOT AND DUP4 DUP1 ADD OR DUP6 SSTORE PUSH2 0x8AD JUMP JUMPDEST DUP3 DUP1 ADD PUSH1 0x1 ADD DUP6 SSTORE DUP3 ISZERO PUSH2 0x8AD JUMPI SWAP2 DUP3 ADD JUMPDEST DUP3 DUP2 GT ISZERO PUSH2 0x8AC JUMPI DUP3 MLOAD DUP3 SSTORE SWAP2 PUSH1 0x20 ADD SWAP2 SWAP1 PUSH1 0x1 ADD SWAP1 PUSH2 0x891 JUMP JUMPDEST JUMPDEST POP SWAP1 POP PUSH2 0x8BA SWAP2 SWAP1 PUSH2 0x8BE JUMP JUMPDEST POP SWAP1 JUMP JUMPDEST JUMPDEST DUP1 DUP3 GT ISZERO PUSH2 0x8D7 JUMPI PUSH1 0x0 DUP2 PUSH1 0x0 SWAP1 SSTORE POP PUSH1 0x1 ADD PUSH2 0x8BF JUMP JUMPDEST POP SWAP1 JUMP JUMPDEST PUSH1 0x0 PUSH1 0x40 MLOAD SWAP1 POP SWAP1 JUMP JUMPDEST PUSH1 0x0 DUP1 REVERT JUMPDEST PUSH1 0x0 DUP1 REVERT JUMPDEST PUSH1 0x0 DUP2 SWAP1 POP SWAP2 SWAP1 POP JUMP JUMPDEST PUSH2 0x902 DUP2 PUSH2 0x8EF JUMP JUMPDEST DUP2 EQ PUSH2 0x90D JUMPI PUSH1 0x0 DUP1 REVERT JUMPDEST POP JUMP JUMPDEST PUSH1 0x0 DUP2 CALLDATALOAD SWAP1 POP PUSH2 0x91F DUP2 PUSH2 0x8F9 JUMP JUMPDEST SWAP3 SWAP2 POP POP JUMP JUMPDEST PUSH1 0x0 PUSH1 0x20 DUP3 DUP5 SUB SLT ISZERO PUSH2 0x93B JUMPI PUSH2 0x93A PUSH2 0x8E5 JUMP JUMPDEST JUMPDEST PUSH1 0x0 PUSH2 0x949 DUP5 DUP3 DUP6 ADD PUSH2 0x910 JUMP JUMPDEST SWAP2 POP POP SWAP3 SWAP2 POP POP JUMP JUMPDEST PUSH2 0x95B DUP2 PUSH2 0x8EF JUMP JUMPDEST DUP3 MSTORE POP POP JUMP JUMPDEST PUSH1 0x0 PUSH20 0xFFFFFFFFFFFFFFFFFFFFFFFFFFFFFFFFFFFFFFFF DUP3 AND SWAP1 POP SWAP2 SWAP1 POP JUMP JUMPDEST PUSH1 0x0 PUSH2 0x98C DUP3 PUSH2 0x961 JUMP JUMPDEST SWAP1 POP SWAP2 SWAP1 POP JUMP JUMPDEST PUSH2 0x99C DUP2 PUSH2 0x981 JUMP JUMPDEST DUP3 MSTORE POP POP JUMP JUMPDEST PUSH1 0x0 PUSH1 0xA0 DUP3 ADD SWAP1 POP PUSH2 0x9B7 PUSH1 0x0 DUP4 ADD DUP9 PUSH2 0x952 JUMP JUMPDEST PUSH2 0x9C4 PUSH1 0x20 DUP4 ADD DUP8 PUSH2 0x952 JUMP JUMPDEST PUSH2 0x9D1 PUSH1 0x40 DUP4 ADD DUP7 PUSH2 0x952 JUMP JUMPDEST PUSH2 0x9DE PUSH1 0x60 DUP4 ADD DUP6 PUSH2 0x952 JUMP JUMPDEST PUSH2 0x9EB PUSH1 0x80 DUP4 ADD DUP5 PUSH2 0x993 JUMP JUMPDEST SWAP7 SWAP6 POP POP POP POP POP POP JUMP JUMPDEST PUSH2 0x9FE DUP2 PUSH2 0x981 JUMP JUMPDEST DUP2 EQ PUSH2 0xA09 JUMPI PUSH1 0x0 DUP1 REVERT JUMPDEST POP JUMP JUMPDEST PUSH1 0x0 DUP2 CALLDATALOAD SWAP1 POP PUSH2 0xA1B DUP2 PUSH2 0x9F5 JUMP JUMPDEST SWAP3 SWAP2 POP POP JUMP JUMPDEST PUSH1 0x0 PUSH1 0x20 DUP3 DUP5 SUB SLT ISZERO PUSH2 0xA37 JUMPI PUSH2 0xA36 PUSH2 0x8E5 JUMP JUMPDEST JUMPDEST PUSH1 0x0 PUSH2 0xA45 DUP5 DUP3 DUP6 ADD PUSH2 0xA0C JUMP JUMPDEST SWAP2 POP POP SWAP3 SWAP2 POP POP JUMP JUMPDEST PUSH1 0x0 DUP2 ISZERO ISZERO SWAP1 POP SWAP2 SWAP1 POP JUMP JUMPDEST PUSH2 0xA63 DUP2 PUSH2 0xA4E JUMP JUMPDEST DUP3 MSTORE POP POP JUMP JUMPDEST PUSH1 0x0 PUSH1 0x20 DUP3 ADD SWAP1 POP PUSH2 0xA7E PUSH1 0x0 DUP4 ADD DUP5 PUSH2 0xA5A JUMP JUMPDEST SWAP3 SWAP2 POP POP JUMP JUMPDEST PUSH1 0x0 PUSH1 0x20 DUP3 ADD SWAP1 POP PUSH2 0xA99 PUSH1 0x0 DUP4 ADD DUP5 PUSH2 0x952 JUMP JUMPDEST SWAP3 SWAP2 POP POP JUMP JUMPDEST PUSH1 0x0 PUSH1 0x20 DUP3 ADD SWAP1 POP PUSH2 0xAB4 PUSH1 0x0 DUP4 ADD DUP5 PUSH2 0x993 JUMP JUMPDEST SWAP3 SWAP2 POP POP JUMP JUMPDEST PUSH1 0x0 DUP2 MLOAD SWAP1 POP SWAP2 SWAP1 POP JUMP JUMPDEST PUSH1 0x0 DUP3 DUP3 MSTORE PUSH1 0x20 DUP3 ADD SWAP1 POP SWAP3 SWAP2 POP POP JUMP JUMPDEST PUSH1 0x0 JUMPDEST DUP4 DUP2 LT ISZERO PUSH2 0xAF4 JUMPI DUP1 DUP3 ADD MLOAD DUP2 DUP5 ADD MSTORE PUSH1 0x20 DUP2 ADD SWAP1 POP PUSH2 0xAD9 JUMP JUMPDEST DUP4 DUP2 GT ISZERO PUSH2 0xB03 JUMPI PUSH1 0x0 DUP5 DUP5 ADD MSTORE JUMPDEST POP POP POP POP JUMP JUMPDEST PUSH1 0x0 PUSH1 0x1F NOT PUSH1 0x1F DUP4 ADD AND SWAP1 POP SWAP2 SWAP1 POP JUMP JUMPDEST PUSH1 0x0 PUSH2 0xB25 DUP3 PUSH2 0xABA JUMP JUMPDEST PUSH2 0xB2F DUP2 DUP6 PUSH2 0xAC5 JUMP JUMPDEST SWAP4 POP PUSH2 0xB3F DUP2 DUP6 PUSH1 0x20 DUP7 ADD PUSH2 0xAD6 JUMP JUMPDEST PUSH2 0xB48 DUP2 PUSH2 0xB09 JUMP JUMPDEST DUP5 ADD SWAP2 POP POP SWAP3 SWAP2 POP POP JUMP JUMPDEST PUSH1 0x0 PUSH2 0xB5E DUP3 PUSH2 0x961 JUMP JUMPDEST SWAP1 POP SWAP2 SWAP1 POP JUMP JUMPDEST PUSH2 0xB6E DUP2 PUSH2 0xB53 JUMP JUMPDEST DUP3 MSTORE POP POP JUMP JUMPDEST PUSH1 0x0 PUSH1 0xA0 DUP3 ADD SWAP1 POP DUP2 DUP2 SUB PUSH1 0x0 DUP4 ADD MSTORE PUSH2 0xB8E DUP2 DUP9 PUSH2 0xB1A JUMP JUMPDEST SWAP1 POP PUSH2 0xB9D PUSH1 0x20 DUP4 ADD DUP8 PUSH2 0x952 JUMP JUMPDEST PUSH2 0xBAA PUSH1 0x40 DUP4 ADD DUP7 PUSH2 0xB65 JUMP JUMPDEST PUSH2 0xBB7 PUSH1 0x60 DUP4 ADD DUP6 PUSH2 0xA5A JUMP JUMPDEST PUSH2 0xBC4 PUSH1 0x80 DUP4 ADD DUP5 PUSH2 0x952 JUMP JUMPDEST SWAP7 SWAP6 POP POP POP POP POP POP JUMP JUMPDEST PUSH1 0x0 DUP1 REVERT JUMPDEST PUSH1 0x0 DUP1 REVERT JUMPDEST PUSH32 0x4E487B7100000000000000000000000000000000000000000000000000000000 PUSH1 0x0 MSTORE PUSH1 0x41 PUSH1 0x4 MSTORE PUSH1 0x24 PUSH1 0x0 REVERT JUMPDEST PUSH2 0xC10 DUP3 PUSH2 0xB09 JUMP JUMPDEST DUP2 ADD DUP2 DUP2 LT PUSH8 0xFFFFFFFFFFFFFFFF DUP3 GT OR ISZERO PUSH2 0xC2F JUMPI PUSH2 0xC2E PUSH2 0xBD8 JUMP JUMPDEST JUMPDEST DUP1 PUSH1 0x40 MSTORE POP POP POP JUMP JUMPDEST PUSH1 0x0 PUSH2 0xC42 PUSH2 0x8DB JUMP JUMPDEST SWAP1 POP PUSH2 0xC4E DUP3 DUP3 PUSH2 0xC07 JUMP JUMPDEST SWAP2 SWAP1 POP JUMP JUMPDEST PUSH1 0x0 PUSH8 0xFFFFFFFFFFFFFFFF DUP3 GT ISZERO PUSH2 0xC6E JUMPI PUSH2 0xC6D PUSH2 0xBD8 JUMP JUMPDEST JUMPDEST PUSH2 0xC77 DUP3 PUSH2 0xB09 JUMP JUMPDEST SWAP1 POP PUSH1 0x20 DUP2 ADD SWAP1 POP SWAP2 SWAP1 POP JUMP JUMPDEST DUP3 DUP2 DUP4 CALLDATACOPY PUSH1 0x0 DUP4 DUP4 ADD MSTORE POP POP POP JUMP JUMPDEST PUSH1 0x0 PUSH2 0xCA6 PUSH2 0xCA1 DUP5 PUSH2 0xC53 JUMP JUMPDEST PUSH2 0xC38 JUMP JUMPDEST SWAP1 POP DUP3 DUP2 MSTORE PUSH1 0x20 DUP2 ADD DUP5 DUP5 DUP5 ADD GT ISZERO PUSH2 0xCC2 JUMPI PUSH2 0xCC1 PUSH2 0xBD3 JUMP JUMPDEST JUMPDEST PUSH2 0xCCD DUP5 DUP3 DUP6 PUSH2 0xC84 JUMP JUMPDEST POP SWAP4 SWAP3 POP POP POP JUMP JUMPDEST PUSH1 0x0 DUP3 PUSH1 0x1F DUP4 ADD SLT PUSH2 0xCEA JUMPI PUSH2 0xCE9 PUSH2 0xBCE JUMP JUMPDEST JUMPDEST DUP2 CALLDATALOAD PUSH2 0xCFA DUP5 DUP3 PUSH1 0x20 DUP7 ADD PUSH2 0xC93 JUMP JUMPDEST SWAP2 POP POP SWAP3 SWAP2 POP POP JUMP JUMPDEST PUSH2 0xD0C DUP2 PUSH2 0xB53 JUMP JUMPDEST DUP2 EQ PUSH2 0xD17 JUMPI PUSH1 0x0 DUP1 REVERT JUMPDEST POP JUMP JUMPDEST PUSH1 0x0 DUP2 CALLDATALOAD SWAP1 POP PUSH2 0xD29 DUP2 PUSH2 0xD03 JUMP JUMPDEST SWAP3 SWAP2 POP POP JUMP JUMPDEST PUSH1 0x0 DUP1 PUSH1 0x0 PUSH1 0x60 DUP5 DUP7 SUB SLT ISZERO PUSH2 0xD48 JUMPI PUSH2 0xD47 PUSH2 0x8E5 JUMP JUMPDEST JUMPDEST PUSH1 0x0 DUP5 ADD CALLDATALOAD PUSH8 0xFFFFFFFFFFFFFFFF DUP2 GT ISZERO PUSH2 0xD66 JUMPI PUSH2 0xD65 PUSH2 0x8EA JUMP JUMPDEST JUMPDEST PUSH2 0xD72 DUP7 DUP3 DUP8 ADD PUSH2 0xCD5 JUMP JUMPDEST SWAP4 POP POP PUSH1 0x20 PUSH2 0xD83 DUP7 DUP3 DUP8 ADD PUSH2 0x910 JUMP JUMPDEST SWAP3 POP POP PUSH1 0x40 PUSH2 0xD94 DUP7 DUP3 DUP8 ADD PUSH2 0xD1A JUMP JUMPDEST SWAP2 POP POP SWAP3 POP SWAP3 POP SWAP3 JUMP JUMPDEST PUSH32 0x4E487B7100000000000000000000000000000000000000000000000000000000 PUSH1 0x0 MSTORE PUSH1 0x32 PUSH1 0x4 MSTORE PUSH1 0x24 PUSH1 0x0 REVERT JUMPDEST PUSH32 0x4E487B7100000000000000000000000000000000000000000000000000000000 PUSH1 0x0 MSTORE PUSH1 0x12 PUSH1 0x4 MSTORE PUSH1 0x24 PUSH1 0x0 REVERT JUMPDEST PUSH32 0x4E487B7100000000000000000000000000000000000000000000000000000000 PUSH1 0x0 MSTORE PUSH1 0x11 PUSH1 0x4 MSTORE PUSH1 0x24 PUSH1 0x0 REVERT JUMPDEST PUSH1 0x0 PUSH2 0xE36 DUP3 PUSH2 0x8EF JUMP JUMPDEST SWAP2 POP PUSH2 0xE41 DUP4 PUSH2 0x8EF JUMP JUMPDEST SWAP3 POP DUP3 PUSH2 0xE51 JUMPI PUSH2 0xE50 PUSH2 0xDCD JUMP JUMPDEST JUMPDEST DUP3 DUP3 DIV SWAP1 POP SWAP3 SWAP2 POP POP JUMP JUMPDEST PUSH32 0x4E487B7100000000000000000000000000000000000000000000000000000000 PUSH1 0x0 MSTORE PUSH1 0x22 PUSH1 0x4 MSTORE PUSH1 0x24 PUSH1 0x0 REVERT JUMPDEST PUSH1 0x0 PUSH1 0x2 DUP3 DIV SWAP1 POP PUSH1 0x1 DUP3 AND DUP1 PUSH2 0xEA3 JUMPI PUSH1 0x7F DUP3 AND SWAP2 POP JUMPDEST PUSH1 0x20 DUP3 LT DUP2 EQ ISZERO PUSH2 0xEB7 JUMPI PUSH2 0xEB6 PUSH2 0xE5C JUMP JUMPDEST JUMPDEST POP SWAP2 SWAP1 POP JUMP JUMPDEST PUSH1 0x0 PUSH2 0xEC8 DUP3 PUSH2 0x8EF JUMP JUMPDEST SWAP2 POP PUSH32 0xFFFFFFFFFFFFFFFFFFFFFFFFFFFFFFFFFFFFFFFFFFFFFFFFFFFFFFFFFFFFFFFF DUP3 EQ ISZERO PUSH2 0xEFB JUMPI PUSH2 0xEFA PUSH2 0xDFC JUMP JUMPDEST JUMPDEST PUSH1 0x1 DUP3 ADD SWAP1 POP SWAP2 SWAP1 POP JUMP INVALID LOG2 PUSH5 0x6970667358 0x22 SLT KECCAK256 0xEB 0xF MSTORE8 0xE4 ORIGIN PUSH25 0xEF967AC4D0D1B8693E95B5263ABAFF978E85F09B72E0E48DD5 JUMPI PUSH5 0x736F6C6343 STOP ADDMOD SIGNEXTEND STOP CALLER LOG2 PUSH5 0x6970667358 0x22 SLT KECCAK256 0x2B LOG2 RETURNDATASIZE MSTORE8 POP PC 0xC5 0x1F SWAP14 PUSH13 0xEF881A232530670F2C01CAC6DE CALLDATALOAD 0xE3 0xCE SWAP5 0xB3 DUP8 0xC4 0xD9 SWAP9 PUSH5 0x736F6C6343 STOP ADDMOD SIGNEXTEND STOP CALLER "
    },
    "gasEstimates": {
      "creation": {
        "codeDepositCost": "1075400",
        "executionCost": "1120",
        "totalCost": "1076520"
      },
      "external": {
        "createCampaign(uint256)": "infinite",
        "deployedCampaigns(uint256)": "4934",
        "getAllDeployedCampaigns()": "infinite"
      }
    },
    "methodIdentifiers": {
      "createCampaign(uint256)": "a3303a75",
      "deployedCampaigns(uint256)": "339d50a5",
      "getAllDeployedCampaigns()": "a950fbc5"
    }
  },
  "storageLayout": {
    "storage": [
      {
        "astId": 4,
        "contract": "Campaign.sol:CampaignFactory",
        "label": "deployedCampaigns",
        "offset": 0,
        "slot": "0",
        "type": "t_array(t_address)dyn_storage"
      }
    ],
    "types": {
      "t_address": {
        "encoding": "inplace",
        "label": "address",
        "numberOfBytes": "20"
      },
      "t_array(t_address)dyn_storage": {
        "base": "t_address",
        "encoding": "dynamic_array",
        "label": "address[]",
        "numberOfBytes": "32"
      }
    }
  },
  "userdoc": {
    "kind": "user",
    "methods": {},
    "version": 1
  }
}